:020000040000FA
:10000000909B05207D48000061B10000DD480000A4
:10001000DD480000DD480000DD480000DD4800004C
:10002000000000000000000000000000C9460000C1
:10003000DD48000000000000714600005FAC0000D9
:10004000554800005548000055480000554800003C
:10005000554800005548000055480000554800002C
:10006000554800005548000055480000554800001C
:10007000554800005548000055480000554800000C
:1000800055480000554800005548000055480000FC
:1000900055480000554800005548000055480000EC
:1000A00055480000554800005548000055480000DC
:1000B00055480000554800005548000055480000CC
:1000C00055480000554800005548000055480000BC
:1000D00055480000554800005548000055480000AC
:1000E000554800005548000055480000554800009C
:1000F000554800005548000055480000554800008C
:10010000554800005548000055480000554800007B
:10011000554800005548000055480000554800006B
:10012000554800005548000055480000554800005B
:10013000554800005548000055480000554800004B
:10014000554800005548000055480000554800003B
:100150005548000053B94AB9002908BF00281CBF00
:100160004FF0FF314FF0FF3000F070B9ADF1080CE7
:100170006DE904CE00F006F8DDF804E0DDE90223C5
:1001800004B070472DE9F047089E0D4604468A46A4
:10019000002B7FD18A42174641D9B2FA82F24AB186
:1001A000C2F1200105FA02F39740944020FA01F1D0
:1001B00041EA030A4FEA17484FEA144C1FFA87F93D
:1001C000BAFBF8FE08FB1EA30EFB09F14CEA034341
:1001D000994206D9FB1802D2994200F224810EF10D
:1001E000FF3E591AA3B2B1FBF8F008FB101100FB57
:1001F00009F943EA0144A14505D93C1902D2A145B8
:1002000000F20E810138A4EB090440EA0E400021FF
:100210001EB1D4400023C6E90043BDE8F08702B90F
:10022000FFDEB2FA82F2002A4FD1CB1B4FEA174E03
:100230001FFA87F80121250CB3FBFEFC0EFB1C30D6
:100240002B4608FB0CF945EA0045A9450AD97D195A
:100250002CBF01230023A94502D9002B00F0D9802F
:100260000CF1FF3CA5EB0905A3B2B5FBFEF00EFBBC
:10027000105508FB00F843EA0544A04505D93C1990
:1002800002D2A04500F2C9800138A4EB080440EA7C
:100290000C40BDE78B4208D9002E00F0B180002150
:1002A000C6E900050846BDE8F087B3FA83F10029E6
:1002B00046D1AB42C0F0A780824240F2A4800846FB
:1002C000002EAAD0C6E9004AA7E7C2F12000974055
:1002D00001FA02F34FEA174EC14024FA00F51FFA63
:1002E00087F894401D43B1FBFEF02B0C0EFB101160
:1002F00000FB08FC43EA01439C4509D9FB182CBFCD
:10030000012100219C4502D9002900F09580013887
:10031000A3EB0C03ADB2B3FBFEF10EFB113301FBFB
:1003200008FC45EA0345AC4505D97D1902D2AC4528
:1003300000F289800139A5EB0C0341EA00417AE71C
:10034000C1F120048B4002FA01F705FA01FCE240FA
:1003500020FA04F8E54000FA01FE134348EA0C02D3
:100360004FEA13484FEA124C1FFA83F9B5FBF8FA2B
:1003700008FB1A550AFB09F04CEA054C60450AD9FE
:1003800013EB0C0C2CBF01250025604501D9002D75
:1003900055D00AF1FF3AACEB000C92B2BCFBF8F07E
:1003A00008FB10CC00FB09F942EA0C4CE14505D9E9
:1003B00013EB0C0C01D2E1453BD8013840EA0A406E
:1003C000ACEB090CA0FB0789CC4545464A4602D355
:1003D00006D1C64504D20138B8EB070569EB030224
:1003E0002EB3BEEB05036CEB020C23FA01F20CFA00
:1003F00004F42CFA01F300211443C6E900430CE78E
:100400003146304609E7841A65EB030301209A461A
:1004100056E7ACF1020C3D4424E702383C4434E793
:1004200002383C44EFE6AEF1020E3B44D9E63146D9
:10043000F3E602389C44C1E702383B4468E7AAF17E
:10044000020A9C44A7E702393D4474E7704700BFA5
:100450007FB53C4B3C4AC2F80036C2F80436C2F8BD
:100460000836C2F80C36C2F81036C2F81436C2F894
:100470001836C2F81C3602F58052C2F80036C2F8AF
:100480000436C2F80836C2F80C36C2F81036C2F884
:100490001436C2F81836C2F81C3600F087F82B481C
:1004A00000F05CF800B9FEE7294807F07BFF04463E
:1004B00002698168136823F4005313600B684FF4DA
:1004C00088720D219847A36820465B6801A9984768
:1004D00038B9019B9B0404D403F042FC1D4803F08F
:1004E000C1FF01A800F06AFE1B4B1B68834200D0CD
:1004F000FEE74FF48031002005F0BCFA00B1FEE7C2
:1005000005F03AFB69469DF8080009F0DCF9009B0C
:10051000039C1C44019B1D890AF0A2FB661901F093
:10052000D9FB00F053FE4FF02002EFF3118382F36A
:100530001188BFF36F8F635983F3088873689847F6
:10054000FEE700BF3546526E00800150B6E0000065
:10055000C9E00000B8DB00006C26002010B5044C98
:10056000236813B907F01EFF2060206810BD00BF8C
:100570006826002003289ABF024B18566FF015001A
:10058000704700BFD0E000001FB5074A03460C4685
:100590001068194601AA0BF036F818B9019B2360C0
:1005A000029B636004B010BD682600204FF4C05168
:1005B000014807F0FFB900BFB2430120F0B51C4667
:1005C000838885B03F2B1F4F02AD2DD10378022BBE
:1005D0002AD1C67946BB092001A902F057F90028A3
:1005E0000ADB31464FF4803201980AF0E1F9064601
:1005F00001980AF08DF906B102260A2120460AF078
:100600000BFD97E8030085E80300294620460AF021
:10061000E2FC314620460AF0D5FC0A2120460AF0C9
:1006200016FD002005B0F0BD0A2120460AF0F4FCBA
:1006300097E8030085E80300294620460AF0CBFC32
:100640000821E7E790DB00002DE9F04FDFF8F89193
:10065000F9B038A81746DDE984481D46DDF808B230
:10066000D9F800600CF0C4FC002138A807F0B2FAF9
:10067000CDF80C903CB1B8F1000F04DD42462146A4
:1006800038A80CF0B9FC4FF000097B89B7F8088056
:100690009844FB689844C8454BD80DA938A80CF07D
:1006A000E8FC869B23B1202218460DA90AF0BFFD65
:1006B00000232A46009339464FF6FF7307A809F036
:1006C0001DF90446002840F0B58080464FF0FF3702
:1006D000DFF878910DF1160305AA06A907A809F01D
:1006E00059F9041EC0F2A68040F09780BDF816A00C
:1006F000BAF1100F34D1BDF81480B8F1200F40F0DA
:10070000978043462846069938AA0AF002F904461B
:10071000002840F08F80424638A90DA809F085F9DD
:100720000446474B1B68834240F084804FF0010829
:10073000D0E7839AA8EB09039A4228BF1A46494694
:100740001346924628465A460AF0E3F80446002823
:1007500070D15246594638A80CF04EFCD1449AE765
:10076000BAF1010F36D1BDF81430202B60D82846DD
:10077000069938AA0AF0CDF8044600285AD19DF807
:1007800014A0BAF1200F03D94FF0FF342746A1E798
:10079000D9F800302B4F0293029B9C42F4DA1DA83B
:1007A0000CF026FC00211DA807F014FA7B681DA898
:1007B0001A6857F8081B0CF01FFC15A91DA80CF0AF
:1007C00058FC524638A915A80AF00AFD0028DDD0C9
:1007D0000134E1E7BAF1200F7FF47CAF002F19DB81
:1007E000D9F80030BB4215DDBDF81430B3F5807F79
:1007F0001ED12846069938AA0AF08BF80446C8B9D3
:10080000FFB25146BDF81430009738AA0DA800F089
:100810001FF806464FF0FF375CE7B8F1000F0DD028
:10082000074B1B68B34201D0039B1E68344601E0AE
:100830004FF0FF34204679B0BDE8F08F0124F9E78E
:100840006C260020C4DB000000200020C0DB00007C
:100850002DE9F04F91460022ADF54B7D98466B4B4C
:1008600007468A4627A811469DF850631D680CF07C
:100870007BFB674B8AAA53F8364003EBC6035B68E1
:100880000294196802A80C44302321460BF05BF84F
:1008900068BB029B8A9A13449C4228D1214629AA0C
:1008A00002A80BF064F810BB0DF1B00B5A462146BC
:1008B00002A80BF05CF80646C8B929A80BF042FC68
:1008C000029B28909C4212D133463246CDE9006B00
:1008D00029A927A80CF004FB48B927A807F018F9A4
:1008E00028B929A80BF02EFC804528900AD027A80B
:1008F0000CF045FB27A80CF042FB28460DF54B7D7C
:10090000BDE8F08FB8F5807F02D04FF0FF35F1E7FA
:10091000BAF1200FF9D149468AAA27A807F01CF995
:1009200004460028F1D19DF82733BC2BEDD10DF5FD
:10093000A478DF26454603900CA80CF059FB002153
:100940000CA807F047F920220DF207310CA80CF093
:1009500053FB042203A90CA80CF04EFB04A90CA81D
:100960000CF087FB1F2ED4BFB1464FF020099DF835
:100970000F30404601334A4604A9A6EB09068DF81C
:100980000F300AF054FC002EC844D5DC28462A4615
:10099000DF238AAE117816F801CB013B81EA0C0106
:1009A00002F8011BF6D12B7803F07F032B7010F8AF
:1009B000016B002EA9D10134BE2CF8D195F8BE30C0
:1009C000012BA2D10CA80CF013FB31460CA807F0A8
:1009D00001F908220F490CA80CF00EFB3946202221
:1009E0000CA80CF009FB20220DF207210CA80CF03A
:1009F00003FB04A90CA80CF03CFB20220DF20731EC
:100A000004A809F012F8054681E700BF0020002085
:100A1000C4DB0000D7E000002DE9F047414B88B06F
:100A2000054690F8B8000E461C6808F052FF06A96B
:100A3000C0B201F02BFF002858D195F8B8703146AC
:100A4000384608F046FF4FF02C0807A9C0B208FB53
:100A500006F801F01BFF00284CD04FF0580A2C2359
:100A60000AFB07F203FB06232B441B6913F0100952
:100A700051D1314695F8B80000F0EAFB0446012850
:100A800012D14FF4807307FB0A820193264B48462C
:100A90000093CDE90399069B95F8B810CDF808901E
:100AA0002A44FFF7D1FD044658237B432C2707FB3C
:100AB00006371E4BE9590698994205EB07020CD1FF
:100AC000D3681289D1438B4207D81344826893427A
:100AD00003D2174B1B68A34205D0E6B10021826800
:100AE00009F066FF3446069809F012FF204608B068
:100AF000BDE8F087079809F093FF0446079809F0CE
:100B000007FF582395F8B82002FB03832B445A1E95
:100B100003339A4201D10124E5E712F8011FA142F3
:100B2000F7D09AE700200020B25B01203DB8F39691
:100B30006C2600202DE9F84F884691469A460026FB
:100B4000DFF894B0224D234C0B9B9E4201D3002032
:100B50000FE00B9B40469F1BB7F5806F28BF4FF4FB
:100B600080671D4A3B4606EB0A0109F0D2FE10B130
:100B70000120BDE8F88F0A993B465A46484671184D
:100B800009F0E3FE0028F3D1144BC5F800463E44BB
:100B9000C5F80446C5F80846C5F80C46C5F8104621
:100BA000C5F81446C5F81846C5F81C46C3F80046F3
:100BB000C3F80446C3F80846C3F80C46C3F8104609
:100BC000C3F81446C3F81846C3F81C46BCE700BF78
:100BD000008001503546526E2C27002000900150B5
:100BE0002DE9F04F04464FF000084FF0FF35B54BAC
:100BF0008946BC22002195B01F680AF023FB84F8C7
:100C0000B88094F8B860012E2DD9B8F1000F00F02B
:100C10006A81002358264FF02C0884F8B83094F8E5
:100C2000B800012800F25E81231893F8B05005F057
:100C3000FB05013D18BF0125294608F04AFE05A91C
:100C4000C0B201F023FE002800F0DC8001250598E9
:100C500009F05EFE002D40F03F8194F8B83001337A
:100C600084F8B830DBE7582505FB0643964A002197
:100C700002EB86325A62954A304602EB86321A659A
:100C800008F027FE94F8B810C0B205FB01412031EE
:100C900001F0FCFD0121304608F01BFE94F8B8106D
:100CA000C0B205FB01414C3101F0F0FD0546204684
:100CB00008F02DFF28BB00222046114608F0F8FE60
:100CC0000646B8B9204608F07FFF98B10AA808F098
:100CD00049FF0AA808F04FFF88BB94F8B82022B15A
:100CE0002346012122449A4221D1002120460AAA0A
:100CF00008F0DEFE012294F8B830234483F8B020D7
:100D000007E0012294F8B8309042234483F8B020E1
:100D1000D1D194F8B830E21892F8B0200133023AF9
:100D2000022A98BF4FF0010884F8B83069E793F8B9
:100D3000B0000133042808BF83F8AF10D3E79DF853
:100D40002F30012B4CD1582394F8B800604903FB95
:100D50000043DB6C5B681A6803938A4209BF1A89F7
:100D6000B24602EB030ADAF8046004F06BFF811E5E
:100D7000022983460CD801212046FFF74DFE554934
:100D8000039B096888421FD0012826D14FF0010B30
:100D900094F8B830234483F8B0B094F8B820002A0F
:100DA000B7D0224492F8B030012BB2D0042BB0D08F
:100DB000234601219A42ACD093F8B00001330428B5
:100DC00008BF83F8AF10F5E7B6F1807FE0D9504651
:100DD000D96804F09FFE0028D8D04FF0050BD7E764
:100DE00001212046FFF718FE3A4B1B68984218BFB6
:100DF000052294F8B83008BF9DF82F20234483F8CB
:100E0000B020CAE7012308FB05F594F8B810009359
:100E100001FB06514023059A21440EA808F06EFDFF
:100E2000054600287FF413AF00230DF1120206A936
:100E30000EA808F0AFFD002855DB05987FF407AF3A
:100E4000BDF812300C2B39D1069907AA09F061FDC3
:100E500000287FF4FBAE9DF81C20012A30D8A3188F
:100E600093F8B0307243023B022B8CBF0023012366
:100E700008FB03232344197D9DF820209142D3D8F9
:100E80000AD3597D9DF821209142CDD804D3DA8A26
:100E9000BDF822309A42C7D294F8B830234493F870
:100EA000B020012A08D0023A012A02D8012283F890
:100EB000B0204FF0FF35CAE60422F8E70325C6E666
:100EC0000725C4E6002000202C2B00202CAB00209E
:100ED0003DB8F3966C260020032D04BF40F20113A9
:100EE000A4F8B030002500234FF0580884F8B8303B
:100EF0000AA808F037FE94F8B800221892F8B0302B
:100F0000042B8DF82F3007D8012B07D800F0AF80C5
:100F1000FF2382F8B030AAE0052BF7E708FB004377
:100F20001946DA6C2C3108F093FE0128054640F092
:100F30009E80014694F8B80008F0CBFC07A9C0B227
:100F400001F0A4FC002800F09A800025079809F021
:100F5000DFFC94F8B860002E00F0CB80012E0CBFAF
:100F60000120FF2007A901F091FC002E00F0C380B2
:100F7000012E0CBF0820FF200026B2460EA901F06A
:100F800085FC94F8B83008FB0343D3F828B0D34568
:100F900017D094F8B830314608FB03435B6A0798D2
:100FA00003EBCA035A68039209F002FD039A164440
:100FB000AE42C0F0A280D4F8B460B5FBF6F506FBF3
:100FC0000566D4F8B40008F032FD94F8B82008FBA8
:100FD0000242536A926A1968013A03EBC203002283
:100FE0005D689C462A449042A3F10803F8D8DCF8D7
:100FF00000300798591A09F0DBFC00232046079AB5
:101000000E9901960093FFF795FD054678BB07986A
:1010100004F0BAFD054650BB94F8B800324608FB10
:101020000043196A08F022FE054600BB94F8B83068
:10103000014608FB03431B6D0E985A6809F0B8FC83
:1010400094F8B83008FB0343D3E91423013B52F86A
:10105000331002EBC30013684268C91A0E9809F0F6
:10106000A7FC079809F054FC0E9809F051FC94F87D
:10107000B830E21892F8B020FF2A41D1FEE794F888
:10108000B830079808FB03439D8E9B6B0EAA05EBB7
:10109000030A5146042309F03CFC00287FF455AFB5
:1010A00094F8B830BDF8382008FB0343DD8E46F6CF
:1010B00008139A421AD1BDF83A309D427FF445AFE9
:1010C000042307980EAA05EB0A0109F022FC002868
:1010D0007FF43BAF46F60713BDF838209A427FF401
:1010E00034AFBDF83A60354455442FE7002DF1D0B8
:1010F0002BE7042036E702203EE70AF1010A46E723
:101100000133DBB2012B84F8B8307FF6F1AE002357
:10111000294E84F8B83094F8B830012B29D9102220
:1011200000210AA80AF08EF8236A5A7889F8042068
:101130005B68C9F80040C9F808301F4B1F680023DE
:10114000582684F8B83094F8B830012B2DD806FB17
:101150000343D86C09F0DCFB94F8B83006FB03437A
:10116000186A09F0D5FB94F8B830013384F8B83028
:10117000E9E7234493F8B030012B07D00021204643
:101180000AAA08F095FC05460028D8D1002120467F
:10119000FFF742FC074633688342D0D194F8B83059
:1011A0000025013384F8B830B5E7002D14BF284678
:1011B000384615B0BDE8F08F6C26002008B5014612
:1011C0000148FFF70DFD08BD702600200122124BDB
:1011D00012491A604FF0FF33C1F84833C1F80833A1
:1011E00001F580514A60043100210D4AC2F84833AC
:1011F000C2F80833A2F55042C2F80015C2F808330D
:1012000002F58052C2F80015C2F808334FF05022A0
:10121000C2F80833704700BF04400150004001503D
:101220000050015001280FD179B9084B08461360CE
:101230004FF4007313814FF45E33C2E90511C2E924
:1012400003315160D1617047012070473DB8F3967A
:10125000012803D119B9024B186870470120704763
:101260006C26002013B50446104807F09BF8B0B177
:10127000002001A904F058FB0D4B02689A4211D1DD
:101280000389C16818444368B3F1807F0AD91CB14F
:1012900004F040FC02B010BD04F01CFCFAE76FF053
:1012A0001200F7E76FF03C00F4E700BFEDE100004B
:1012B0003DB8F3962DE9F0430546079810B9106044
:1012C000BDE8F0830324B0FBF4F404EB4407B84218
:1012D00018BF0134B4F1804F05D34FF0FF331360D2
:1012E0006FF00B00ECE7A40001348C4200D80DB97C
:1012F0001460F5E72E460024DFF8B4E0BC42314626
:101300009C4606F1040603F1030329D3844222D24A
:101310000134844228BF00239CF80060244F38BF6A
:101320009CF801304FEAA60C17F80CC0844281F8F3
:1013300000C007EB131C2FBF3D239B0003F03C03B1
:10134000FB5C36018B703D2306F030061CF806600E
:10135000CB704E70043100204D1B15600870AFE754
:1013600013F803CC13F8021C4FEAAC091EF80990DD
:101370004FEA0C1C13F8018C0CF0300C06F8049C9E
:101380000EEB111919F80CC0890006F803CC01F016
:101390003C010EEB981C1CF8011008F03F0806F801
:1013A000021C1EF80810033406F8011CA6E700BF53
:1013B0008FE200004FF0000C2DE9F0430746654630
:1013C0006046079EDFF82081B5420AD32E4604E02E
:1013D0000135AE420EF1010E05D1A8BB1060BDE88B
:1013E000F0834FF0000E5C5D202CF1D0AE42F4D0C3
:1013F000A6EB0509B9F1010F15D90D2C13D103EB9B
:10140000050999F80190B9F10A0F1BD0BEF1000F40
:1014100006D13D2C09D10CF1010CBCF1020F07D90A
:101420006FF01500DBE70A2CEFE714F0800FF7D11F
:1014300018F804407F2CF3D03F2C02D8BCF1000FE9
:10144000EED101300135BFE7062500F007046C43FB
:1014500004F1070EC4086C43A4EB0C0404EBDE0497
:1014600087B18C420ED80025394603242846DFF880
:1014700078E0DFF878801E449E4207D1C91B002027
:101480001160ACE76FF00B001460A8E713F8019B44
:10149000A9F10A0C5FFA8CFCBCF1160F04D828FAEB
:1014A0000CFC1CF0010FE7D11EF809C00130BCF1A3
:1014B000400F08BF013C0CF03F0C04284CEA851596
:1014C000DAD17CB1280C012C087002D10131002046
:1014D000D2E7022C4FEA1520487016BF8D700231FA
:1014E0000331F4E72046C7E70FE20000090040009F
:1014F0002DE9F84FB0F81890044619F00808934603
:101500000DD001290CBF49F0100949F02009A0F8BD
:1015100018908BF31188BFF36F8FBDE8F88F09F037
:101520000709022907D1204608F0F8FB0028F0D06F
:101530000128238B50D16769218B002F15DA25688C
:1015400021F00701C4E9008841F001012183002650
:10155000218B01F0070ACA4502D0A368002B5CD199
:101560000DB9002E74D0002358E001F007035A1F74
:10157000012A20D821F00701062B256889B2C4E989
:1015800000880CD1002D2B4638BF00232BB1628B75
:101590001B6801326283002BF8D141F00201204622
:1015A000218308F0BBFB06460028D1D0238B43F0F3
:1015B00020032383CBE7042B0CD121F0070189B250
:1015C0002046218308F0AAFB05460028BFD041F041
:1015D000200121830025BAE7032809D1226923F0DD
:1015E0000703166843F00603002523832F46AFE761
:1015F000042806D1226923F00703566843F0040348
:10160000F2E7052806D1226923F00703966843F024
:101610000503E9E700252E46E8E7012341F008012C
:1016200021838BF31188BFF36F8F03BB002D33D160
:1016300016B120462049B0474FF02003EFF3118B3D
:1016400083F31188BFF36F8F238B23F00803238369
:10165000238BDA0628D5012123F010032383B4F865
:10166000189009F0070900297FF45BAF51E7A168E2
:101670000029DBD00B68002B38BF00239946524667
:101680003B462046D1F804B0D847B9F1000FCDD081
:101690004946D9F80030EEE729463B4652462046F7
:1016A0002D6808F057FBC1E713F020011EBF23F09F
:1016B000200302212383D2E7819D0000094B0A49C0
:1016C00000F01F024009012808BF0B4603EB82030C
:1016D000D3F8002222F0E04242F04052C3F8002248
:1016E000704700BF002584500028845070B54FF02B
:1016F0002003EFF3118683F31188BFF36F8F01246A
:101700000C4B0D4DC3F8004502230020C5F8D03620
:10171000FFF7D4FF2046FFF7D1FFC5F80447C5F80F
:101720000449C5F8004B86F31188BFF36F8F002082
:1017300070BD00BF001000500040005048B1054B84
:101740001A68054BB2FBF3F2044B504343F001031C
:10175000184770475821002040420F00B0DB0000BE
:10176000F0B5104B104C114DE41AA4106C43104D01
:10177000D5F824C00025A54202D16FF08500F0BD48
:101780005F6867450AD31E6946B197F802E007799A
:10179000BE4503D13346BDE8F04018470135243338
:1017A000E9E700BF84230020A8230020398EE33816
:1017B0002C2B01202DE9F04705460E464FF000087E
:1017C000154C164B17461B1B154A9B1002FB03F9C1
:1017D000DFF850A0C14503D16FF08500BDE8F08768
:1017E0006268DAF824309A4212D3A36983B1907800
:1017F0002979884205D13A4631462846BDE8F04766
:1018000018475279012A03D13A463146284698476B
:1018100008F101082434DDE784230020A8230020F8
:10182000398EE3382C2B01202DE9F84305460E466E
:101830004FF000080D4C0E4B17461B1B0D4A9B101A
:1018400002FB03F9C14502D16FF085000BE063692B
:101850001BB908F101082434F4E73A46314628461A
:1018600098470028F5D1BDE8F88300BF8423002005
:10187000A8230020398EE33807B583788DF800302F
:101880000379427943EA0223ADF80230C37868460F
:1018900003F003038DF8043001F0EAFD10F1780F36
:1018A00004D018B1002003B05DF804FB9DF80000DF
:1018B00001F064FE10F1780F01D00028F2D1012070
:1018C000014B83F8B900EEE72C2B01202DE9F04FF6
:1018D000A84E0746B3690D46904685B063B93B787C
:1018E00003F01F03012B00F08E80022B00F0F0802C
:1018F00043B16FF0150002E098470028EFD105B022
:10190000BDE8F08F7A787888D8F80030092AF0D8C6
:1019100001A151F822F000BF41190000F3180000A6
:10192000F3180000F3180000F31800004F1900002E
:1019300059190000F31800008719000091190000E0
:101940000020012258701A7002232B60D7E7C0B222
:1019500001F07CFD0020D2E7020A131F012BC8D939
:10196000072AC6D80021736AC0B21C78002CC0D0E8
:101970005E78964203D1884200F01A8101312344F7
:10198000F3E71B781AE196F8BA201A70012315E1E3
:10199000C7B28DF80F7077B14FF0FF080025C14630
:1019A000746A23787BB9F3691BB103200DF10F0131
:1019B0009847002D9DD0082200216F4809F042FC75
:1019C00086F8BA70C6E76378042B0DD0052B0ED0CD
:1019D000022B06D194F805809DF80F30434508BFCF
:1019E000012523781C44DCE794F80390F9E79DF87F
:1019F0000F304345F5D1B9F1000FF2D12046FFF782
:101A00003BFF0546EDE796F8BA30002B3FF471AF87
:101A1000746AB7F804C0234697F804901A78002A2D
:101A20003FF467AF5978022903D11879484500F28D
:101A3000C7801344F2E70C44217800293FF459AFE2
:101A40006378042BF7D1A3789C45F4D1072B8EBF84
:101A50000023F61896F8BB30137097E797F80280CA
:101A6000FF274FF0000BBA4606EB090300932378DB
:101A70003BB9F36913B15946072098470020286005
:101A80003DE76378042B04D0052B11D023781C4448
:101A9000EDE7A77894F803A0B945F7D1D045F5D183
:101AA000B9F1070F02D8009B83F8BB80A346EDE78E
:101AB000B945EBD1D04507D0A078019000F0C2FC29
:101AC000019801F085FDE1E72046FFF7D5FEDDE74F
:101AD0003879D8F8008030F080048DF80F001ED0DF
:101AE0004FF0000C254B264A2649D21A92104A4341
:101AF00062453FF4FEAE4FF0000E196A93F81CA049
:101B000004395FFA8EF9CA4503D80CF1010C24336D
:101B1000EEE70EF1010E11F83E908145F1D17B7890
:101B2000012B11D0032B2FD0002B7FF4E2AE24B178
:101B300096F8BA30002B3FF4DCAE414601F002FDCE
:101B4000002088F80100FFE67B88002B7FF4D1AEEF
:101B500024B196F8BA30002B3FF4CBAE01F0D2FCA2
:101B6000F369002B3FF4F6AE09200DF10F01984701
:101B7000F0E600BF2C2B0120E72B0120842300205E
:101B8000A8230020398EE3387B88002B7FF4B1AE88
:101B900024B196F8BA30002B3FF4ABAE01F08AFCCA
:101BA000F369002B3FF4D6AE08200DF10F01DEE7FC
:101BB000022AC8F800307FF4E4AE5B882B60C9E6E7
:101BC0007878D8F800200A283FF436AF0B283FF485
:101BD00045AF00287FF48DAE1070507029608EE6FE
:101BE00008B509480378C3F341130A3350F823308A
:101BF0003BB100F1080200F110019847C043C00F4B
:101C000008BD1846FCE700BF2C2B01202C4B2D4AA9
:101C10002DE9F14F9B1A2C4E9B10042804460D46CB
:101C200006FB03F621D108220021284809F00AFB0F
:101C3000274F97F8B930D3B100F022FC042C16D10D
:101C40004FF00009DFF87C804E4527D04FF0000AA6
:101C5000D8F820B098F81C205FFA8AF39A4214D87A
:101C600009F1010908F12408EEE70528E0D04FF05A
:101C70000008144FB04515D1154B1B6AE3B1294636
:101C8000204601B0BDE8F04F18470BEBC3031879AD
:101C900001F09EFC00280AF1010ADBDA002387F834
:101CA000B930E4E7FB681BB12A462146384698471D
:101CB00008F101082437DDE701B0BDE8F08F00BF6F
:101CC000A823002084230020398EE338E72B01204D
:101CD0002C2B012010B5064C94F8B80030B101F05F
:101CE00069FB0028A4BF002084F8B80010BD00BF25
:101CF0002C2B012013B5124C237DC3B9E268A168D7
:101D000001AB8020019208F0B4FC0199A268E3685D
:101D10000A445B1AA260E3603BB92369E2889A42F5
:101D200003DD9B0601D10123237502B010BD002302
:101D300080201A461946237501F070FCF5E700BFB4
:101D40002C2B01200B46002130B585B002460191B5
:101D5000002856D1002B33D108220DEB020108F0E8
:101D60003AFF002804DA802001F0A4FB05B030BD62
:101D7000294C0299BDF80E3021600399802B9DF803
:101D80000820616006D9D10904D1802001F092FBBE
:101D90000020E9E721492361C4E9021300212175EC
:101DA0000BB1D309E2D0FFF71BFF0028DBD0E2889C
:101DB00023699A42D4BFE260E360FFF79BFFD5E757
:101DC000154C01ABD4E90215002D04DC08F003FF2B
:101DD0000028CBDAC7E72A4608F0FDFE0028D4DB4E
:101DE0000199A268E3680A445B1AA260E360002BD1
:101DF000BCD104F13803A360FFF7F2FE0028DCD168
:101E0000B1E78028B2D1044BDA68002AD5D11B7D16
:101E1000002BD2D1AAE700BF2C2B0120642B01207C
:101E2000054B064A58629A62054A0020DA62054A62
:101E30001A63054A9A6170472C2B0120CD180000C7
:101E40006117000029180000B5170000074B10B5F6
:101E500093F8B84024B900F0B3F918B1FFF7E0FFE8
:101E6000002010BD4FF0FF30FBE700BF2C2B0120FE
:101E70002DE9F7430446374D4FF0FF324FF0FF3363
:101E8000354806F071FC95F8B860002E42D1334811
:101E90002C62E86101F0D8FC01F04CFA041E3ADB38
:101EA00000F016FB041E36DB40236846ADF8023016
:101EB0008DF804608DF8006001F0DAFA041E2ADB68
:101EC000802768468DF8007001F0D2FA041E22DBEC
:101ED0003046234901F0A4FC041E1CDB384620498F
:101EE00001F09EFC041E16DB1E4C1F4B1F4A1B1BE1
:101EF0009B1002FB03F9B14514D1002001F03EFB19
:101F0000041E08DB802001F039FB041E03DB0123E3
:101F100085F8B8300024104806F0A4FC204603B031
:101F2000BDE8F0830027D4F82080237FFAB29342E3
:101F300002D801362434DEE708EBC20358F8321029
:101F4000187901F06DFC01370028EED04FF0FF3416
:101F5000E1E700BF2C2B01207C2200200D1C00009B
:101F6000451D000084230020A8230020398EE3387B
:101F700030B51F4B8BB005AA03F110051446186845
:101F80005968083303C4AB422246F7D11B781022AC
:101F90002370002101A809F055F9122200211548EB
:101FA00009F050F9102101A808F024FE00281BDDDB
:101FB000083801AB0028A8BF1B18002118460D4A9D
:101FC00010F8013B0AAC04EB131414F8144C03F0A2
:101FD0000F0314700AAC234413F8143C0131082990
:101FE000537002F10202EBD102480BB030BD00BFCA
:101FF000CFE20000B25C01202DE9F04F00266B4AD1
:1020000004464FF0011AB0463746B1469346684B36
:1020100068499B1A9B104B4387B0019323783BB9C7
:10202000654AA01C904200F0BF80FFF7E5FF17E073
:102030006378052B05D8DFE803F07E04037E072ACA
:10204000A14623781C44E9E7E378002BF9D1A37873
:1020500093B91F46554A019BBB4204D14FF0FF3054
:1020600007B0BDE8F08F536824329C4209D1242385
:1020700003FB07B7BB6833B908F101085FFA88F8BA
:10208000DFE70137E7E7414620469847F4E7002FAE
:10209000E4D0002301213A7F9342DFD23A6AA57847
:1020A00002EBC3021079854201D00133F3E7012529
:1020B00094F803C094F805E00CF0030C8DF814C0FC
:1020C00094F804C0E8B24CEA0E2CADF812C094F9B2
:1020D00002C0BCF1000F25DA05F1100C01FA0CFC6E
:1020E0001CEA0A0F23D160F07F008DF8100004A8CD
:1020F000CDE9023208F057FDDDE902320121B0B925
:102100009DF8103013F0800FA37013710B461BBFA6
:102110001035AB4003FA05F54AEA030A08BF4AEA5C
:10212000050A8EE701FA05FC1CEA0A0FDDD001352D
:10213000102DBDD1B9E7032E1ED1FFF719FF0546BB
:1021400068B109F03AF8029048B11C4809F035F836
:10215000029A824203D12946A01C09F068F86FF068
:10216000020100202378091BE21804EB5303D1423B
:1021700013D50136F6B264E7002EF0D1B9F1000FA5
:102180003FF46CAFA4EB090389F80230C3F30723D3
:1021900089F8033089F80480EBE702F8010C13F8A2
:1021A000015902F8025DE2E7184659E7842300204E
:1021B000A8230020398EE33881230020CFE20000DD
:1021C00008B50448FFF718FF0028024818BF002090
:1021D00008BD00BFA0220020094B00211A4610B5FF
:1021E0001C78844204D15C6814B102EB811010BDEC
:1021F0000131042903F14003F2D10020F7E700BFC9
:10220000F02B01202DE9F34150F8283C044610330F
:1022100010F82C5C10D1036950F8202C99073CD59C
:1022200002BB13F0040304D11A461946284608F0ED
:1022300020FA002344F8283C54F8283C10330ED0F0
:1022400054F8186C5EB154F81C7C54F8148C0BF0E4
:1022500008F800284CD021462D480BF0B3F802B006
:10226000BDE8F08150F8241C01AB284608F001FAC3
:1022700010B16FF01503DDE7019A54F8243C1344C4
:1022800044F8243C54F8203C9B1A44F8203C54F871
:102290001C3C134444F81C3CCEE750F8241C01AB12
:1022A000284601F033FA0028E3D1019E54F8243C7B
:1022B000334444F8243C54F8203C9B1B44F8203C15
:1022C00054F81C3C334444F81C3C002EB1D0284642
:1022D00001F0C0FAB6FBF0F303FB10600028A8D1B0
:1022E00054F8203C002BA4D0284601F057FAA3E76D
:1022F00044F8180CA4F1100006F02EFB54F8283C0A
:102300008C33ACD0424639462846B047A7E700BFD9
:10231000A82300204B1E012B73B506460D460FD88F
:10232000FFF75AFF044668B9012D09D101AB01221C
:1023300030460DF1030101F0E9F9019B002BF5D1C5
:1023400002B070BD0AF08DFF04F12C0108B1012D1F
:1023500003D10846FFF756FFF2E702480BF032F8C8
:10236000EEE700BFA82300202DE9F74F05468A4677
:102370009046994608F0CFF90446002859D14FF00D
:102380002003EFF3118B83F31188BFF36F8F2A497A
:10239000A601002208460023019106F0FDFA0199EA
:1023A00058B9264FBC19636813F1100F14D101936B
:1023B000084606F0D1FA019B06E00134042C01F135
:1023C0004001E5D16FF00B038BF31188BFF36F8FE2
:1023D000184603B0BDE8F08F0C9B206163610D9B34
:1023E0002846A3616FF00F03C4E902A8C4F83C902B
:1023F0006360BD5501F02EFA58B1284601F02AFA63
:10240000B8FBF0F202FB108018B1E36B43F0040359
:10241000E36319F0020F07D006F12C010848394494
:102420000AF0D0FF0023CFE7284601F0B7F90346B2
:10243000CAE76FF00F03CBE70C2C0120F02B012033
:10244000A823002010B54FF02003EFF3118483F38D
:102450001188BFF36F8FFFF7BFFE50B14368103391
:1024600007D16FF08B0300F12C01436003480AF0A1
:10247000A9FF84F31188BFF36F8F10BDA82300203C
:102480002DE9F04100256FF08B070F4CDFF83C8001
:102490004FF02003EFF3118683F31188BFF36F8FA2
:1024A0006368103305D1404604F12C0167600AF0DF
:1024B00089FF86F31188BFF36F8F0135042D04F176
:1024C0004004E5D1BDE8F081F02B0120A8230020D5
:1024D00070B50025094C0A4E314620460AF069FFC6
:1024E0000122A4F11000114601350AF04FFF042D1E
:1024F00004F14004F0D1002070BD00BF1C2C01206D
:102500000522000070B504460E46017910481546B4
:1025100008F0D6F8B0B16378212B0ED0222B08D06A
:10252000202B12D1072229680C3808F080FE0020E9
:1025300070BD638800F8053CF9E707230C38286074
:102540003360F4E76FF01200F2E76FF01500EFE789
:10255000F42C0120014608B5034808F0C2F810B178
:10256000012300F8033C08BDF42C0120012301697C
:1025700081F83B300B6833B191F839301BB1024818
:1025800018310AF01FBF7047A823002001230169FA
:1025900081F83A300B6833B191F838301BB10248FA
:1025A00018310AF00FBF7047A823002038B505691D
:1025B00095F88E0078B195F88F306BB985F8383082
:1025C000D5F8800007F0B8FF044605F1280103485C
:1025D0000AF0F8FE204638BD0020FCE7A8230020C2
:1025E000012310B5144682F8383002F1080006F0D5
:1025F000B3F923683BB194F83A3023B1094804F1A8
:1026000018010AF0DFFED4F88030D3E900329A4294
:1026100006D004F128010348BDE810400AF0D2BEFC
:1026200010BD00BFA823002073B5144602F13C067C
:102630000A1E054603DD3146E06F07F07DFF0123EA
:1026400084F8393023683BB194F83B3023B1084813
:1026500004F118010AF0B6FE064B40220093314601
:10266000012328460194FFF77FFE02B070BD00BF32
:10267000A8230020292600007FB5836E05465B68ED
:102680001B6A1E7D304608F046F8D0B94FF48062D0
:10269000A86D03A907F06FFF044690B18306A5F16A
:1026A00028030193084B08BF00F1FF3403990093FE
:1026B000224602233046FFF757FE2146A86D07F059
:1026C00076FF04B070BD00BFE125000030B5426860
:1026D00005694FF4003342F2A10085B0CDE9010352
:1026E000002385F88D30106AADF80C100A220079AD
:1026F00001A907F0BEFF074C95F88D3013B10020FB
:1027000005B030BD01200AF08EFF013CF4D16FF01E
:102710000400F5E7A1860100002310B50469C4F8A0
:1027200094300F4BC4F89000596804F19402A1B999
:10273000C3E900224FF0FF32002104F108000AF043
:1027400025FE04F1180007490AF033FE04F12800C1
:1027500005490AF02EFE002010BD0A605A60E9E724
:10276000F42C01203DA700007926000010B5044696
:10277000083006F0F1F800210B4BA4F88E10186811
:102780009A889B79C4F88400A4F88820218784F86B
:102790008A3084F88C1084F88B1004F13C004022BD
:1027A000BDE8104008F04EBDA0DB000038B50D4676
:1027B00001461C4807F075FF0446B8B1024652F8BE
:1027C0009039691E5B68052910D8DFE801F0100F09
:1027D0000310151914F8021C19B91B6A187BFFF7AE
:1027E00023FF012304F8023C04F8583C38BD10468E
:1027F000BDE83840FFF7BABF012304F8013CF5E714
:1028000014F8011C0029F1D0002114F8020C04F87E
:10281000011C0028EAD01B6A187BBDE83840FFF78E
:1028200003BF00BFF42C012037B50024084D4FF042
:10283000FF334FF4806228460649009406F0BEF943
:10284000054928460AF013FD204603B030BD00BFFD
:10285000A8230020906B0520EAE20000094B30B568
:102860001D68094B02461C6800239D4201DC0020C4
:1028700030BD1901615C04EB03109142F8D00133C3
:10288000F3E700BF1CDD0000EC200020084B10B572
:102890001B680C462BB1FFF7E1FF28B12060002038
:1028A00010BD6FF00C00FBE76FF00100F8E700BF10
:1028B000EC20002030B589B00C4615460190FFF79A
:1028C000CDFFB8B14368226802938368C068CDE940
:1028D00003350023CDE90623059307F0F9FF60B126
:1028E000074901AA08F093FE079808B9059B2360E1
:1028F00009B030BD6FF01500FAE76FF01200F7E78E
:10290000D5A800000E4A70B5841A05460C20A31005
:102910000C4C0E465C43E4B200FB042040217830AE
:1029200008F090F8011E05DB074B03EBC404636855
:102930009847002128463346BDE87040184700BF3D
:10294000102D0120B76DDBB638DC00002DE9F04119
:102950000C25104E8046841BA3100F4C0F465C4381
:10296000E4B2654305F178004021304408F083F873
:10297000011E09DB094A7319C3E91C27084B53F8E8
:102980003430BDE8F041184740463B46BDE8F041D1
:10299000184700BF102D0120B76DDBB6D9AA000083
:1029A00038DC00002DE9F84300220121064605200D
:1029B00001F0CCFE052001F097FE114803F056FA15
:1029C000104B984219D103F061FA00244FF01C0813
:1029D0000C27DFF834903569494608FB045007F0AE
:1029E000ECF9002807DB012307FB04551C44042CE9
:1029F000AB67F0D10020BDE8F8836FF00400FAE780
:102A0000412A00000000AD0B58DC000001460C23F9
:102A100000224B43084870B5C4187833D4E91C56DB
:102A20001844226708F045F82DB132462B46BDE820
:102A300070400248184770BD102D01201CD80000BE
:102A4000052811D8DFE800F0030E10100C0A074B20
:102A5000986F10F0070007D1FFF7D8BF0220FBE7FF
:102A60000320F9E70120F7E7704700BF102D012090
:102A700008B54FF02003EFF3118183F31188BFF302
:102A80006F8F124A136843F0020013F001031060C5
:102A90000CD04FF05022D2F80C34D2F80C2413F0A2
:102AA000010303D00A4808F004F8012381F31188D8
:102AB000BFF36F8F23B1BDE808400020FFF7A6BF2A
:102AC0000120BDE8084003F0F5B900BFB02D01209A
:102AD000882D0120074BD3E8EF2F22F00201C3E835
:102AE000E01F0028F7D1D30702D4012003F036BA43
:102AF000704700BFB02D01201FB500220123CDE992
:102B000002236B46084ACDF800D0CDF804D008F077
:102B100015F8002805DB4FF480420023684605F0D5
:102B20003BFF05B05DF804FB0FAB0000C3B21C20F7
:102B3000014A03FB00207047102D01202DE9F843C6
:102B4000012206463949D1E8EF3FC1E8E02F0028CD
:102B5000F9D133B9364937484B60CB608A6007F00A
:102B60003FF9731E012B32D8012E07D14FF05023AD
:102B7000D3F81C3403F00303022B28D00AF071FBB6
:102B8000044618B92C4B1B78002B47D14FF020037B
:102B9000EFF3118583F31188BFF36F8F0124274F63
:102BA000DFF89C80DFF89C904FF05022D2F8183468
:102BB000D2F81824D2030CD503F00303022B01D062
:102BC000012E06D124B385F31188BFF36F8FBDE8C2
:102BD000F883C4B1284601F013FE4FF05022D2F81A
:102BE0001835DBB2012BDFD139680029DCD0002198
:102BF000396039680221C2F818152022C8F88021EE
:102C0000C9F80030D0E70021212006F01FFAE4E7E0
:102C10004FF050230222C3F80423D8E74FF050238B
:102C200002220546C3F80823B9E700BFB42D0120EE
:102C3000002D01202C2D0120CE69052004510050CB
:102C400000E100E008500050014601480AF093BB43
:102C500090220020014902480AF0B4BBE033012071
:102C60004024002000F07F03082B41B204D010F074
:102C7000780F01D000207047002900F00F0200F00B
:102C8000080005DA58B9084800EB42104C3070478C
:102C900038B9054800EB421000F5B670704703489C
:102CA00070470348704700BFB83301200435012046
:102CB0002436012013B5002400220121372001F021
:102CC00045FD372001F010FD0A4803F0F7FA0A48E5
:102CD00004F0EAFC4FF0FF334FF4806207490848E4
:102CE000009405F06BFF074907480AF062FB204695
:102CF00002B010BDF9E2000064DC0000906F052016
:102D0000402400204D300000E0330120002210B5A7
:102D10000E4901F12003D3E8EF0F012803D1C3E8E6
:102D2000E42F002CF7D10CBF012010460CD1CC6948
:102D30000C31204607F0C2F810F1780F04D120467C
:102D4000BDE8104007F095B810BD00BFB8330120B2
:102D500038B5074D074C00220023284605F0C8FD72
:102D600020B1011D20460AF053FAF4E738BD00BF38
:102D7000902200201022002007B5002300220E48D8
:102D800001A905F007FC90B1FFF7E2FF0022002344
:102D9000094801A905F0FEFB38B9042301984060F9
:102DA0000374FFF751FFFFF755FF002001E0019882
:102DB000406003B05DF804FB1022002010B504460B
:102DC000FFF7DAFF60B1002204720274FFF73CFFE4
:102DD000044B93F824301BB1BDE81040FFF73ABF15
:102DE00010BD00BFB8330120012807B50FD002285D
:102DF0000ED048B9002200230848CDE9002345F64B
:102E00009A12002306F042FB03B05DF804FB002099
:102E100003B05DF804EBFFF7D1BF00BFD82100205D
:102E2000F8B5877806463846FFF71CFF3B06044690
:102E3000F57812D5002D43D1FFF79EFF03460028F9
:102E40003ED00122A5770274032202739C60FFF733
:102E5000FBFEBDE8F840FFF7FDBE4DB1012D2FD1BF
:102E6000FFF78AFF034658B3657705740573EDE7EE
:102E7000FFF782FF20B3B378124A13F0800F03F0FC
:102E8000080111D041B1D2F8A836E36001230374E0
:102E9000022384600373DAE7142103F00F0301FBBC
:102EA0000323D3F80836F0E711B1D2F8A837ECE7DE
:102EB000142103F00F0301FB0323D3F80837E4E7E1
:102EC000F8BD00BF00600350F0B5064689B014227B
:102ED000002103A808F0B6F93378013B052B24D86C
:102EE000DFE803F0790317176919032300248DF82D
:102EF0001430FFF741FF0346B8B100228DF81820C7
:102F000000F108020474DDE9050182E803001846B7
:102F10001DE00423EAE7B7783846FFF7A3FE837A7B
:102F2000044623B1013B022B41D909B0F0BD3B0659
:102F3000F57811D5002DF8D1FFF71EFF03460028C4
:102F4000F3D00122A5770274032202739C60FFF77D
:102F50007BFEFFF77FFEE8E755B1012DE5D1FFF7D6
:102F60000BFF03460028E0D0657705740573EDE795
:102F7000FFF702FF07460028D7D00123037402237E
:102F80008460037304F10C01B07808F064FC134A08
:102F9000E168B2F88C328B4206D95B1AA2F88C3207
:102FA00004F0E0F83846D2E7A2F88C52FAE730464F
:102FB000FFF736FFB9E701A804F0AEF89DF8053039
:102FC000052B04D19DF8043013F0600FADD0044BF5
:102FD000012405938DE702248BE700BFB83301205D
:102FE0002435012038B5002464F07F00C0B2FFF71B
:102FF00039FE013407F0BDFD082CF5D100240F4D3A
:10300000E0B2FFF72FFE036913B905EB84130361E8
:10301000013407F0AEFD082CF2D1094C04F5A6707E
:1030200007F0A7FDD4F87C3213B9064BC4F87C3204
:10303000054807F09EFD002038BD00BFB8310120D3
:10304000B8330120B82D0120243601202DE9F043AA
:103050000746DFF8DC82AE4C85B0002200234046F4
:1030600005F046FC10B905B0BDE8F08394F82530B2
:10307000027C00F104093BB9002A00F08580494632
:10308000A4480AF0C5F8E8E7042AF8D8DFE812F007
:103090007C000500FE0014012F01037B8568032BD3
:1030A000EDD8DFE803F0023C595E6E69082200218A
:1030B000304608F0C7F8984B9848D3F8802432700F
:1030C000D3F884247270D3F88824D3F88C1442EA9D
:1030D00001227280D3F89024D3F8941442EA01229A
:1030E000B280D3F89824D3F89C34314642EA0323C3
:1030F0000822F380EA6008F09AF82B680021687AC9
:1031000098473378DB0906D1F38823B1A4F88C32D1
:1031100004F028F8B3E70023A4F88C32AFE76B7F04
:10312000002BACD02B7F002BA9D000264FF0FF3214
:103130006E774FF0FF332E77794807F02FFD6B69DC
:1031400001A901936B68CDE90236687A03F00AFEA3
:10315000734807F021FD92E701212B68687A9847B0
:103160008DE7AB7A6BB9EB7F5BB94FF0FF324FF075
:10317000FF336B4807F012FD04F024F8684807F0AD
:103180000BFD02212B68E9E7027A042A3FF677AFAC
:10319000DFE802F057032165710003F093FD054657
:1031A00000287FF46CAF03F031FD01235D49D1E8C5
:1031B000EF2F002A03D1C1E8E03F0028F7D17FF4C8
:1031C0005EAF41F8105C41F8085CE0691439636156
:1031D00006F006FE53E7002565F07F00C0B2FFF75A
:1031E00041FD037A13B1407A04F0DCF90135082D72
:1031F000F2D194F854311BB194F8550104F0D2F98E
:103200000025E8B2FFF72EFD037A13B1407A04F0EF
:10321000C9F90135082DF4D194F874321BB194F832
:10322000750204F0BFF9012003F026FD012384F8A4
:1032300025302368002B3FF422AF0021022098475D
:103240001DE7002584F8255004F03AF9FFF75EFDEC
:103250002368002B3FF413AF29460420EFE7002B2F
:103260003FF40DAF04F046F92368002B3FF407AF9D
:1032700000210520E3E72268002A3FF400AF002B7D
:103280003FF4FDAE002106209047F8E607F1100557
:103290004FF0FF334FF0FF32284607F07FFCFFF777
:1032A000A1FE284607F078FC57F8283C002B3FF495
:1032B000E6AE00210120C2E794F874327BB101250B
:1032C00084F8895284F88852FFF756FD38B1164ABF
:1032D000057405738260FFF7B7FCFFF7BBFC57F876
:1032E000283C002B3FF4CBAE00210A20A7E704F0D6
:1032F000C3F904F0E5F803F07FFCFFF729FDFFF7C1
:1033000071FE04F0B1F9094803F0E6FCB7E600BF2E
:10331000B83301201022002000600350BC3301208C
:10332000F0330120D833012024360120C92E0000BB
:103330009022002038B51A4D95F8244054BB05F171
:10334000380009F0A5FF0220FFF7F0FB224601211B
:10335000E861362001F0FAF9124803F0BDFC124B87
:10336000984219D104F080F9FFF73CFE044610B9E9
:10337000012385F824300D4B1B680BB1FFF76AFC65
:103380000B4BD3F80034DB0702D50020FFF72CFDF0
:10339000204638BD0024FBE76FF00404F8E700BFC7
:1033A000B8330120C92E00000000AD0B9022002090
:1033B0000070035010B54FF0FF324FF0FF331F483D
:1033C00007F0ECFB0024FFF7C3FC64F07F00C0B201
:1033D000FFF748FC01342022002107F033FF082CBE
:1033E000F3D10024E0B2FFF73DFC0134202200219C
:1033F00007F028FF082CF5D120220021104807F003
:1034000021FF202200210F4807F01CFF03F05AFC87
:1034100008B104F055F803F04DFC08B103F0ECFBE3
:103420000024FFF773FC04F027F9074880F82440D4
:10343000383007F0B1FB204610BD00BFF03301204B
:103440000435012024360120B8330120074B93F8BE
:1034500024203AB193F82530002B0CBF6FF01200F6
:10346000002070476FF01200704700BFB833012092
:1034700038B50F4B044693F82430B3B1057828468D
:10348000FFF7F0FB10B96FF0150038BD45722379D6
:10349000837261882B07416002D44B1E0B42F2D12C
:1034A000284608F0D3F90020EFE76FF01200ECE7B0
:1034B000B833012038B5124B054693F82420CAB121
:1034C00093F82530B3B1FFF7CDFB0446A8B1837A5A
:1034D000012B12D007D9023B012B07D900206369C9
:1034E000E060A36138BD03F075FEF7E7284603F0FE
:1034F000E5FDF3E76FF01200F4E76FF01500F1E778
:10350000B833012038B50E4B054693F8242082B11C
:1035100093F825306BB1FFF7A5FB68B115F00804EF
:103520000AD1284603F0ECFD284604F08DF8204629
:1035300038BD6FF01200FBE76FF01500F8E700BF31
:10354000B833012038B50C4B054693F824200C46BF
:1035500062B193F825304BB1FFF784FB48B144B119
:10356000284603F0B3FD2070002038BD6FF0120034
:10357000FBE76FF01500F8E7B8330120F8B5134EFC
:10358000044696F82420BAB1FFF76CFB0546B0B1AB
:10359000230705D4204603F0B3FD204604F054F879
:1035A0002F7A7FB9012396F825002B7218B1204697
:1035B00003F0F8FF3846F8BD6FF01200FBE76FF03C
:1035C0001500F8E76FF07700F5E700BFB83301208A
:1035D00038B5114B044693F824209AB193F825305E
:1035E00083B1FFF73FFB054678B1037A83B12046EC
:1035F000002403F0AFFF2846AC7707F0BAFA204664
:103600002C7238BD6FF01200FBE76FF01500F8E781
:103610006FF07700F5E700BFB83301202DE9FF47D1
:10362000DFF8E4801C4698F82430074689461646A1
:10363000C246002B5DD098F82530002B59D00306E8
:103640005AD5FFF70FFB0546002855D0037A002B0B
:1036500052D04FF0FF334FF0FF3208F1380007F03F
:103660009DFAAB7F4BB108F1380007F095FA6FF087
:103670000A04204604B0BDE8F08716B9EB7F03B119
:10368000EE77AB7ABBB95EB1BAF80A30B34207D96C
:103690006A68B6FBF2F302FB13630BB90123EB7705
:1036A00003F0A0FDB84206D003F08CFD144807F0EB
:1036B00073FA0024DDE701234FF00008AB773846AA
:1036C00001A9CDE90196CDF80C8003F04BFB0D4B21
:1036D000984207D085F81E800CB1C4F800806FF0C6
:1036E000040402E00CB126604446054807F054FA91
:1036F000BFE76FF01204BCE76FF01504B9E700BF35
:10370000F03301200000AD0BB83301202DE9F0416A
:103710001D46204B174693F824200E46002A33D02E
:1037200093F8253083B3030631D401B97FBBFFF78B
:1037300099FA044658B3037A4BB34FF0FF334FF076
:10374000FF32154807F02AFAE368B8469F4228BFBF
:10375000984646B93FB905B12B600F4807F01CFAEF
:103760000020BDE8F08142463046A16907F05FFDC8
:10377000A3694344A361E368A3EB0803E360002D5E
:10378000EBD0C5F80080E8E76FF01200E9E76FF0D2
:103790001500E6E7B8330120F033012070B51E4D67
:1037A000034695F8242082B395F825206AB31B06BA
:1037B0002ED4FFF757FA044650B3037A43B34FF0C1
:1037C000FF334FF0FF3205F1380007F0E7F9E36807
:1037D000B3B9012663692677A361637F83B1FFF7DD
:1037E000CBFA30B905F1380007F0D6F96FF00B00CD
:1037F00070BD067484600673FFF726FAFFF72AFA95
:10380000064807F0C9F90020F2E76FF01200EFE771
:103810006FF01500ECE700BFB8330120F033012052
:10382000084B10B593F824300C462BB1FFF71AFA69
:1038300028B10460002010BD6FF01200FBE76FF0AC
:103840001500F8E7B8330120014B1860704700BF3E
:10385000B833012008B5074B93F8243023B1FFF7A4
:1038600001FA20B1406808BD6FF01200FBE76FF06D
:103870001500F8E7B8330120044A1368C81A20F08D
:103880007F400344136005F059BD00BF5836012046
:103890002DE9F0474FF480374FF00009860000F122
:1038A000500406F15026A40006F58036A4B204F1B7
:1038B0005024D6F84035DFF86C8021F07F4504F5C0
:1038C00080348740D8F804A5A3EB0A0323F07F4394
:1038D0002AF07F42012BC6F8402502D1132009F0BF
:1038E000A2FE0AF10202AB1A23F07F43B3F5000FE8
:1038F00088BF1546C4F80090236825F07F43C8F8B8
:103900004473C6F84035D8F804359A4506D0EB1A0A
:10391000023B23F07F43B3F5000F01D8BDE8F087E9
:103920002B46CFE700500150F8B50026134C144F3A
:1039300000202568134B06B1F8BDD3F80423D20349
:10394000FAD53A68002AF7D03E603A684FF48032E0
:10395000C3F84823D3F84015D3F804250126531A99
:1039600023F07F43B3F5000F88BF11461DB1626895
:103970002060A847DCE72560DEE700BF4C36012069
:10398000405101500050015038B500244FF48033AD
:103990004FF400120D4D0121C5F80845C5F8043358
:1039A0000B4B1520C3F88021224600F0CFFE1520D6
:1039B00000F09AFE0123074A20461360064A2B6056
:1039C0001360FFF7BBF8204638BD00BF0050015020
:1039D00000E100E00850015054360120134BB0F1D3
:1039E000FF3F08BF1846013800281CDD9842A8BFD9
:1039F00018460F4BD3F804250E4B1968521A12F4CF
:103A0000000F18BF002022F07F4301330A4A03440D
:103A10000A48106000205060044A934294BFC918BD
:103A20008918FFF735BF0020E3E700BFFFFF7F00E5
:103A300000500150583601204C36012079380000E2
:103A4000044BD3F80405044B1B68C01A20F07F40D8
:103A5000704700BF0050015058360120014805F062
:103A60000FBE00BF20DD000008B508B34368042B7B
:103A700007D0082B13D0F3B1006804F0F3FE002048
:103A80000CE000220368D3E8EF1F012903D1C3E84B
:103A9000E02F0028F7D1094808BF104608BD036889
:103AA00000201B78064A03F5807342F82300F5E7EF
:103AB0006FF4E040F2E70348F0E700BFE98FFFFF53
:103AC00000000350EA8FFFFF10B5044618B90D4BF4
:103AD0000D485B689847616808290DD031F00403F0
:103AE0000AD011F0020108D02146084809F090FBE5
:103AF000002323600023636010BD1422206807F0B8
:103B0000A1FBF7E7742100200CE300005C360120E4
:103B100010B5044618B9164B16485B689847636899
:103B2000042B23D0082B21D0CBB92368BBB94FF08D
:103B3000FF324FF0FF3321460F4804F02BFD08B948
:103B400023681BB90A4B0D485B6898471422002173
:103B5000206807F077FB636843F002036360206826
:103B600009F096FB636843F00103636010BD00BF7A
:103B7000742100200CE300005C36012032E30000D9
:103B800008B540B34368042B0BD0082B16D003B301
:103B900000684FF0FF324FF0FF3304F0E5FD58B1FD
:103BA00015E001220368D3E8EF1F002903D1C3E821
:103BB000E02F0028F7D10AD1002008BD0368074A8A
:103BC0001B7803F5807352F82330002BF4D004489F
:103BD000F3E70448F1E76FF4E040EEE7000003503C
:103BE000E98FFFFFEA8FFFFF08B506494023142243
:103BF000054809F0F2FABDE808400449044805F018
:103C00009DBD00BF783601205C36012038DD000004
:103C100028DD0000F7B5244D286883685B6C03B18C
:103C20009847286883685B6B002B35D11F4C204E6A
:103C3000286883689B69002B31D001220DF10701B0
:103C4000984701282BD1236843B933683BB3716887
:103C50001A688B42326000D17260236015499DF86A
:103C600007700A880846B2F5007F06D2236802F181
:103C7000010C1344A1F800C01F720A2FD8D1236889
:103C800002880D495A6000221A604E684EB9C1E997
:103C9000003302802260CAE798470028C6D103B0EB
:103CA000F0BD33604B60F4E7A03F0120803B012072
:103CB000783B0120B0430120983F0120044B10B510
:103CC000044618688368E1B25B689847204610BDD7
:103CD000A03F0120F8B506460B4615464FF02002DE
:103CE000EFF3118C82F31188BFF36F8F194C2168A9
:103CF00049B1194A5068884205D0002008605068D0
:103D000098B9C2E90011154A116829B157680868C5
:103D1000B942106008BF50608CF31188BFF36F8FF9
:103D2000216029B900202860F8BD01605160EAE7F0
:103D300048680831F6D05C1E8442A8BF044630466D
:103D4000224607F074FA0023335501232B60E01854
:103D5000EAE700BF843B0120783B0120983F012027
:103D600037B50025204B214AC3E90055204B03F508
:103D700002711360C3F80852196051601D4804F0C5
:103D800011FB1D4C206028B9206848B94FF0FF3066
:103D900003B030BD2846FEF76BF80028F4D0F5E7F5
:103DA000836823B19B6C13B10022144998472068A3
:103DB00083685B6B53B1984740B90025104B20686E
:103DC0001D8083689B6A5BB91846E1E720688368B9
:103DD0009B69002BF1D001220DF107019847EBE719
:103DE00098472846D4E700BF983F0120783B012040
:103DF000883B0120E0E20000A03F0120153C0000CC
:103E0000B043012040F606132DE9F041DFF81081A0
:103E1000ADF51C7DD8F80000ADF808303C4B3D4FA7
:103E20001C680378E41B0133037000238188C4F30A
:103E3000072242EA042242800A0242EA1122437027
:103E400082800821009341F2210205F01CFF01222B
:103E500003462146ADF80C000092384641F221029B
:103E600005F011FF02252C4E40BA3368ADF80C0066
:103E7000022102A85B68984704F10A035BBA0DF1BE
:103E80000E01022205A8ADF80E3007F0D0F9D8F8DF
:103E9000001008220DF11600ADF80E5007F0C7F91A
:103EA000BDF80E0005AB083080B222463946ADF8A9
:103EB0000E00184407F0BBF9BDF80E0005AB204416
:103EC00080B22A46ADF80E0003A9184407F0AFF9F6
:103ED000BDF80E3004AA2B449BB2ADF80E3000930F
:103EE00040F2591105AB45A8FDF7E4F90499336890
:103EF000ADF80E1045A85B6889B29847336829462B
:103F00005B68064898470DF51C7DBDE8F08100BF51
:103F100010210020C4640120A43F01207DE30000A3
:103F2000A83F012013B50D4C0A21204607F074F874
:103F30006B460B4A92E8030083E8030019462046CB
:103F400007F049F80021204607F03CF80A212046F6
:103F500007F07DF8FFF756FF02B010BD10210020DA
:103F600098DB00002DE9FF410C681B4F02380D461D
:103F7000C4F500710090194B381903AA0131FDF7FF
:103F800019FA044628BB2B68039A1344022B2B60B2
:103F90001BD93988023B0E0246EA1126B6B29E4270
:103FA00013D14FF00108034641F221023146CDF80A
:103FB0000080B81C05F067FE38B9022E05D92B68C1
:103FC000023B1F442B60BC704446204604B0BDE851
:103FD000F0814FF0FF34F8E7C4650120C767012086
:103FE0002DE9F04F0729ADB040F25B81057815F05F
:103FF000FD0540F056814288A1F10806130243EA0C
:1040000012239BB2B342C0F04C81B34BB34F186044
:10401000838800F1080C190241EA1321B04B89B2E0
:104020003B60012903F580738180FB6040F0FA81D9
:10403000C4792CB1012C00F0C280FFF773FF30E18E
:10404000384606F0E9FFA74B0AA90A93062338462B
:104050000B9306F0C0FF0521384606F0D1FFDFF8CC
:10406000A882DFF8A89200279C4D00E0012739467E
:10407000204605F02EFC09A9C0B2FEF707FC064653
:10408000002875D13946204614AAFDF7CBF801283F
:1040900005D120233146099814AA06F03AFC149B56
:1040A00043456BD0904B1E68099806F031FCD9F857
:1040B0000030B3425CD11421284606F0ADFF8B4B93
:1040C0000CA90C93052328460D9306F084FF214686
:1040D000284606F077FF864B0EA90E930423284648
:1040E0000F9306F078FF3946284606F06BFF814BA8
:1040F0000DF1700A1093072310A92846119306F0BA
:104100006AFF9DF86410504606F0BCFD4FF02E0B80
:104110002CAB461C18449DF8651000F840BC0AEB17
:10412000060006F0AFFD2CAB3044461C1844BDF829
:10413000661000F840BC0AEB060006F0A3FD2CABAD
:104140000644334401361A9903F840BC0AEB0600D2
:1041500006F098FD5046CDF848A007F02EF812A9B9
:104160001390284606F037FF1421284606F06FFF0B
:10417000002F3FF47BAFBCB93C4674E7394620467C
:10418000FDF766F8064601288ED1402300210193F1
:104190001CAB00930846CDE90311099B029114AAB8
:1041A000FCF752FA06467FE705214C4806F04CFF23
:1041B00021464A4806F04BFFFFF724FE71E03146E6
:1041C00060460EAB1CAA0C9500F02AFA10B94FF00D
:1041D00003083DE00E9B9E42F9D14FF0FF384FF0AF
:1041E000FF392E46AA462C4642464B462F46DDF85E
:1041F000ACC01CA9664557D1591C08BFB2F1FF3F9E
:10420000CDE90623E3D0002FE1D05046FCF7B2F908
:104210000CA9C0B2FEF73AFB0028D8D1DDE906238D
:1042200052EA0301344E0AD10C99306088680021AB
:10423000404571EB0901CADB3049C1F8008000211B
:10424000D6F800C0994208BF944561D04FF00008ED
:104250000A21224806F0E0FE294B14A914930223F8
:104260001E48159306F0B7FE41461C4806F0AAFE0C
:10427000B8F1000F0CD1234B12A912930323174856
:10428000139306F0A8FE1C4B1448196806F09AFE1A
:104290000A21124806F0DBFEFFF7B4FD0C9806F089
:1042A00037FB2DB0BDE8F08F087A032805D8DFE88A
:1042B00000F002070A0FD1F800A001360C3199E78F
:1042C000D1E90074F9E7086880464FEAE079F4E73D
:1042D0000A68D317F1E700BFA83F01201021002092
:1042E000C46401205FE300000020002066E30000BA
:1042F0006CE3000071E30000AC3F0120BC3F0120F3
:10430000D4E0000079E300003DB8F3966C2600206D
:10431000524BA4441A68994694453FF658AF0C98FE
:1043200006F075FBB4FBF0F303FB10433068D9F8DB
:1043300000200119914238BFE41A10A9204428BF77
:10434000DDB2FCF721F98046002881D1444B109959
:104350001A689B46914205D1316865B923463A46B1
:104360000C9830E0119A0C98196006F021FB8046F9
:104370000028F1D06CE7B4EB05082AD043463A4652
:104380000C9806F0E2FA00287FF421AF2C4633683F
:104390004744434433602A46394614A806F047FF91
:1043A0000C9806F03DFB14AB0146C5F10802581904
:1043B00006F048FF0C9D3768284606F028FB394672
:1043C0000346284614AA06F0C0FA00287FF4FFAE80
:1043D00001E0002CDFD133681C44D9F80030346090
:1043E0009C427FF433AF0C9805F026FB10A9FCF734
:1043F000CBF8804600287FF42BAF1099DBF8003013
:10440000994207DC5046D9F800200C9905F034FC9D
:1044100080461DE7119A0C9806F0CAFA80460028DB
:10442000F0D015E789B9C379012B3FF406AE052B0F
:104430007FF437AFFFF776FD00214FF4005004F012
:1044400005FE012006F002F92BE73B4632466146A5
:10445000FCF7B4F800287FF424AFADE6BC3F0120A0
:10446000242100202DE9F3411B4F002405463E4640
:104470001A4BDFF86C8000941860C4F500712B684B
:1044800001AA0131381998470028019B01DC002B53
:10449000F3D004442BB940F201239C42EDD1002417
:1044A000EBE73378062B09D17378092B0BD1002366
:1044B00000936946A01EFFF755FD04E0042B02D1CE
:1044C0007378142BF5D00128E9D1009940460239C0
:1044D000FFF786FDE3E700BFC5670120A43F012089
:1044E000C665012030B585B005460C4606F0AFFC28
:1044F00020B9002404F0010005B030BD0C2304F104
:104500003C02CDE9014305210120054B009506F051
:10451000AEFC0446284606F0A8FC0028E9D0E9E7EE
:104520002545000073B504460E4606F0CEFD05464F
:1045300038B3364B6946009305232046019306F0B5
:1045400083FC38B13146204606F035FC10B100231B
:10455000337240E0204606F0BBFDA8B12C4B694603
:10456000009304232046019306F06EFC60B13146AF
:10457000204606F066FC38B101253572204606F06B
:10458000ABFD284602B070BD204606F0A1FD78B113
:10459000204B6946009303232046019306F054FC08
:1045A00030B13146204606F006FC08B10223CFE7C1
:1045B000204606F08DFD80B10325174B6946204645
:1045C0000093019506F040FC38B13146204606F0D4
:1045D000F2FB10B135720125D0E7204606F078FDD8
:1045E00008B90025CAE70D4B69460093032320460E
:1045F000019306F029FC0028F3D03146204606F04E
:1046000020FC0028EDD00423A2E700BF66E30000F1
:1046100080E3000085E3000079E3000089E3000007
:104620001FB54FF0020C0124CDE9014C024C00945F
:1046300006F056FD04B010BDE5440000094A0A49E1
:10464000936809681867596708494B6843F08053B5
:104650004B60002383F31188BFF36F8F9368586F0B
:10466000704700BF64430120ECDF000000ED00E074
:1046700013498A684FF030001044EFF3098C80E84A
:10468000F01F202080F31188BFF36F8F0D4F4FF084
:104690000066CA698A603E60106F0023136780F36A
:1046A000118802F1300090E8F01F8CF3098802F1C4
:1046B000000004B506F04AFDBDE804407047000064
:1046C0006443012004ED00E01EF0040F0CBFEFF383
:1046D0000880EFF30980816911F8021C0229FFD0DC
:1046E00001B506F039FD01BD43B2002B08DB012204
:1046F00000F01F0002FA00F0024A5B0942F82300B2
:10470000704700BF00E100E043B2002B0DDB012247
:1047100000F01F0002FA00F05B09044A203342F85F
:104720002300BFF34F8FBFF36F8F704700E100E0AE
:10473000054B420953F82220012300F01F0003FA21
:1047400000F01040704700BF00E100E043B2002BD2
:1047500001F10101ACBF03F16043064B4FEA411187
:10476000C9B2ABBF03F5614300F00F0083F800133B
:104770001954704714ED00E042F8203C009B0B49AF
:1047800042F81C3C019B21F0010142F8183C029BBD
:1047900042F8081C42F8143C4FF0807342F8043C85
:1047A0000023203A02650367704700BF759F000031
:1047B000084B9860036E83F30B88104681F30988D9
:1047C000002163B681F31188BFF36F8F00220023AD
:1047D00005F0D0FB64430120014910220A607047B4
:1047E00010ED00E072B6404080F31188BFF36F8F88
:1047F000BFF34F8F30BF62B6BFF36F8F704700BFFC
:1048000072B6494081F3118820BF80F3118862B6E7
:10481000704700BF30BFFFF7FDBF00BF0B4A08B5B0
:104820000B4B22F07F029A60BFF34F8FBFF36F8F65
:10483000D3F8882022F47002C3F8882003F0DEFD4C
:1048400004F098FC00F07EF903F0FCFD000000008D
:1048500000ED00E001B5EFF30580A0F110004FEA94
:10486000C0000449014409C99847BDE80140024914
:10487000084700000CD90000994A0000002080F38E
:104880001488BFF36F8F002080F30A8880F30B88B1
:1048900008F06AFF00200E490860BFF34F8F0D48F3
:1048A00080F3088800F028F9202080F311880A4856
:1048B0004FF40061401880F30988EFF3148002215F
:1048C000084380F31488BFF36F8FFFF7A7FF000042
:1048D00094ED00E0909B0520D09C0520EFF308802C
:1048E000EFF3098101B5724600F056F801BD00BF33
:1048F0000E4B9A6A9A6A9A6A920708D55A6B9A6A14
:10490000120604D518B19A6A22F080029A62002039
:10491000064B9A6A9A6A9A6AD20658BF9A6A9A6A43
:1049200042F0FF029A620870704700BF00ED00E09D
:104930000D4B9A6A9A6A9A6A920507D59A6A120486
:1049400004D518B19A6A22F400429A620020064BFC
:104950009A6A9A6AD20558BF9A6A9A6A42F47F4262
:104960009A620870704700BF00ED00E0094B9A6A38
:104970009A6A986A9A6A9A6A9A6A9A6A9A6A10F419
:1049800080106FEA02426FEA124218BF02209A6258
:10499000704700BF00ED00E070B5364B0E465B6817
:1049A00000258AB0C3F3080385F31188BFF36F8F26
:1049B00002F07F41B1F17F4F11D102F00C010829C3
:1049C0000DD0110701D4064601250022033B8DF8C6
:1049D0000720032B47D8DFE803F0043E423B2E4676
:1049E000F3E7244BDA6A92073DD4DC6A14F0804482
:1049F00008D028331B78EBB101200DF10701FFF738
:104A000077FF04469DF8073093B92022314602A86B
:104A100006F00DFC099B45B3C3F3080222B96FEA07
:104A200053236FEA43230993204602A906F092FB21
:104A30000AB070BD104B1B782BB101200DF107019E
:104A4000FFF776FFDDE70D4B188884B2002CD9D034
:104A5000FFF78CFFD5E700200DF10701CFE700201D
:104A60000DF10701ECE70024CCE723F4FF7323F0FA
:104A70000103D8E700ED00E029ED00E02AED00E0B9
:104A8000044B5A6942F010025A615A6942F480623A
:104A90005A61704700ED00E0044B9968D86988427C
:104AA00003D003494FF080520A60704764430120ED
:104AB00004ED00E0BFF34F8F0549064BCA6802F4CE
:104AC000E0621343CB60BFF34F8F00BFFDE700BF31
:104AD00000ED00E00400FA0500231846054A1168BD
:104AE000C1F307218B4200D17047936010610133FD
:104AF000F8E700BF90ED00E010B572B6002484F333
:104B00001388FFF7E9FF0E4A234611464FF0FF34A2
:104B100003F120000133102B42F82040F8D100238C
:104B20004FF0FF3003F160020133102B41F82200F7
:104B3000F8D162B6BFF34F8FBFF36F8F10BD00BFC8
:104B400000E100E0002320210348C2180133452B77
:104B500082F80013F9D1704700E100E0064B9B6832
:104B6000834207D1EFF3058323B1044A536843F02E
:104B70008053536004F09ABA6443012000ED00E0D2
:104B80001FB5094C094A23460121094800F0DCF809
:104B900000230393074B0121E41A01A80193029417
:104BA00000F0DCF804B010BD000007200020002059
:104BB0004CDD0000A823002010B50B680C7A23F010
:104BC0001F0204F01F031A43CB68640923F01F037C
:104BD000044943EA440343F001038860CA600B615F
:104BE00010BD00BF90ED00E02DE9F04F884614465F
:104BF00006464FF000094A4D85B0C14505DA776891
:104C0000BFB31F2F05D86FF01504204605B0BDE8CF
:104C1000F08FFB06F7D1D6F800A01AF01F0FF2D1E3
:104C2000504606F0A4FA834607EB0A00013806F066
:104C30009EFA8345E7D11BF1160FE4D0631E5B4556
:104C4000E1DBC5F808B0E968C5F808B02F6921F0C4
:104C50001F01D6E900321A44994247F01F0702F1BA
:104C6000FF3A1CD1574508D131465FFA8BF006F068
:104C700087FA09F101090C36BFE73146C5F808B0DB
:104C8000EB6822F01F0203F01F031A43EA60E0B250
:104C900006F076FA10F1160FB5D0441CE9E7013B97
:104CA0005745E0B223F01F03C5F808B006D12A69C2
:104CB000314602F01F0213432B61E9E7296901F035
:104CC0001F010B432B61314606F05AFA10F1160F03
:104CD00099D0C5F808B0EA689DF80830013F62F342
:104CE00004038DF808302B699DF808205B0863F3F6
:104CF00047128DF80820D6E900321344009323F0C0
:104D00001F033B44441CA3EB0A0AE0B22AF01F0332
:104D1000072803933FF677AF6946FFF74DFFBCE7DF
:104D200090ED00E00522034B5A60BFF34F8FBFF3B5
:104D30006F8F704790ED00E0BFF35F8F0022014B53
:104D40005A60704790ED00E010B5034C2278FFF7F1
:104D50004BFF207010BD00BFC66901202DE9F74F41
:104D6000264D8A4606464FF00008AB46244FD045F4
:104D70001BDAD6F80490B9F1000F39D03168084633
:104D8000019106F0F4F90199044609EB010001389C
:104D900006F0EDF984424FF014021A4B08D06FF080
:104DA000150302FB08F84BF8083003B0BDE8F08F9C
:104DB00014F1160F2C60F8D01978A142F5DD02FB32
:104DC00008B0BC60BC60FC6800F10801007B64F3C3
:104DD0000400087138690C79400860F347140C71BD
:104DE000F96821F01F016960396921F01F0129610B
:104DF00008F1010814350C36B9E700BFC03F0120A7
:104E000090ED00E0C669012038B50E4C2568082DEC
:104E100014D8FFF791FF00200B4B0C4A1A63854210
:104E200005D10B4B1D70FFF77DFF002038BD616879
:104E300001EB0011FFF7C0FE0130F0E74FF0FF304B
:104E4000F4E700BF58DD000090ED00E0AAFF440049
:104E5000C669012008B51B4806F014FA10B96FF0B6
:104E6000120008BD4FF4B0520A21164806F0F3F9BB
:104E70000028F6DB144806F005FA0028EFD041F2CE
:104E800001621621104806F0E6F90028E9DB0D481A
:104E900006F0F8F90028E2D041F201620421094845
:104EA00006F0D9F90028DCDB074806F0EBF900280A
:104EB000D5D041F201621821034806F0CCF900EA8E
:104EC000E070CEE764D800004CD8000008B5094B6C
:104ED0001A786AB901210D2019700521FFF736FCF7
:104EE0000D20FFF701FC4FF00042034BC3F80423F1
:104EF000002008BDC769012000D000502D4BF0B53F
:104F000044682D481340834245D00DD8062B15D058
:104F100005D89BB1022B40D06FF015003AE0B3F5F5
:104F2000801FF9D1012309E02448834237D0B3F52B
:104F3000A00F36D0B3F5800FEED10223D0064CBFC0
:104F40000326C2F3401682F480759705C2F3402011
:104F5000C5F3002506D512F4006F676823D001223F
:104F60008A40BA60277A164A164C01F01F01012FB9
:104F700008BF144640EA4502002004EB8101D1F845
:104F8000004242EA032304F0E04443EA8603234359
:104F9000C1F80032F0BD0723D0E70423CEE7052394
:104FA000CCE70323CAE7520542BF01228A40FA60D8
:104FB000D8E700BF0600F000060010000200400025
:104FC000002884500025845010B5094B094C00F08E
:104FD0001F024009012808BF234603EB8203D3F8D0
:104FE000002222F4403242EA0142C3F8002210BDFE
:104FF00000258450002884502DE9F84F0369884625
:10500000D3E90521DE680A4326EA02063746012471
:105010004FF00009D0F804A01B69DAF80420DFF88B
:1050200068B015695D40174B26EA050517B9284693
:10503000BDE8F88F3C4220D09AF8082009F01F0004
:10504000344240EA421012D14109012914BF5946A5
:10505000194600F01F02803251F82220C2F30142AB
:10506000022A02BFD8F800202243C8F800200021FD
:10507000FFF7AAFF034B27EA040709F101096400BF
:10508000D4E700BF0028845000258450F7B50E46B1
:10509000416806F01F05097AB2F5A03F076945EAA5
:1050A000411511D15F4CDFF888C16809012814BF90
:1050B0002046604605F01F01803150F82110C807D6
:1050C00007D56FF0850093E0B2F5005FF96800F056
:1050D00091800121F868B1400143F96001217869AC
:1050E000B140B2F5A03F0CBF08438843786100206F
:1050F000BA69B3F5C02F0CBF0A438A43BA613A6953
:10510000B3F5802F0CBF114322EA0101464A3961F1
:10511000D2F80433DBB200F5A27152F82110C1F3CA
:1051200005218D426BD123FA00F1C90767D58300B1
:1051300003F1A04303F55043D3F8101521F001010A
:10514000C3F8101501238340C2F80833C0B200F041
:10515000CBFF28460021FFF737FFF868F04010F03A
:10516000010045D07869F04010F001044ED0BB69D1
:105170000DF10700F340DB0757BF3969032621FA19
:1051800006F606F001065CBFC6F10206F6B200F0B4
:10519000CDFF264B984236D100209DF807102D02F6
:1051A0008B0003F1A04303F55043D3F8102505F419
:1051B0007C5522F44F3222F44072C3F81025D3F804
:1051C000102515438A0002F1A04202F5514245EA3A
:1051D0000646C3F8106510601268D3F8102542F037
:1051E0000102C3F8102501230F4A8B40C2F8043393
:1051F00003B0F0BD0120B04021EA00016DE70130AD
:10520000082888D1A5E76FF01200F1E73969284630
:10521000F14001F00101C1F10301C9B2FFF7D4FE71
:105220002046E5E70025845000D000500000AD0B7B
:1052300000288450F0B5002485B0CDE90044CDE9C4
:105240000244264E35685DB102A92548FFF7D4FE19
:1052500003A900902348FFF7CFFE01903460336824
:10526000002201269446204CD4F8043306FA02F1B9
:1052700019421BD0910001F1A04101F551410B6889
:10528000A3B102F5A27354F8233004AFC3F3403046
:1052900007EB800050F8107CC3F3042306FA03F3F5
:1052A0003B43C1F800C040F8103C0B680132082AAB
:1052B000DAD1009A1AB10A490C4805F0EFFF019AB9
:1052C0001AB108490A4805F0E9FF2DB1044806F073
:1052D00048F8044806F045F805B0F0BD7CD1005010
:1052E0004CD8000064D8000000D00050E03F0120FE
:1052F000FC3F0120024B0B6001231360704700BF8D
:10530000ECDD000000487047FCDD0000054B9942D1
:1053100007D1006920304FF0FF324FF0FF3303F028
:105320003BBB70470000AD0B2DE9F04F81460F46A7
:105330001C46164685B0002A00F09080002B00F035
:105340008B8000294268C0F289805268CB18934252
:1053500000F284807D4205F0030506F0BEF8A54208
:1053600028BF2546734203F0030306F0030B58BF22
:10537000C3F1000BCBF1000B0BF0030BA34528BFCF
:10538000A346631BA4EB0B0424F0030423F00308DF
:10539000A045C8BFA04603F0030AC8BFA3EB040A98
:1053A000B8F1000F17D006EB0B037A1941461846E7
:1053B000019306F0E6F9044601464846FFF7A6FFCA
:1053C000294A944237D15D4505D0019B4246194692
:1053D000701905F015FFADB13A1F04212A4402A847
:1053E00006F0CFF9044601464846FFF78FFF1E4BF3
:1053F0009C4220D1C5F1040102AB2A463046194433
:1054000005F015FFBAF1000F24D008217A194244A3
:105410000DEB010006F0B5F9044601464846FFF7DA
:1054200075FF114B9C4206D108EB0500524602A9BC
:10543000304405F0FCFE04F17444484604F5A6042B
:1054400006F040F80A2C0CD8084B33F9140005B0CC
:10545000BDE8F08F044CEEE71846F8E76FF0150052
:10546000F5E76FF00F00F2E70000AD0B7CE0000005
:1054700073B54C6805468CB3D4E90043886878B3AB
:10548000D0E9006068B363B398422DD10133092B92
:105490002AD88DF8013040F20113ADF80230002314
:1054A000097828468DF804308DF800108DF8052015
:1054B00006F013F821463246684601F039F90446F1
:1054C000284605F0FFFF04F1744000F5A6000A2805
:1054D0000DD8084B33F9100002B070BD2346CDE75C
:1054E000064601330344D2E76FF01500F4E76FF08E
:1054F0000F00F1E77CE000002DE9FF4706468846F3
:105500001F469146002A7BD0002B79D0042B01D96D
:10551000BB0775D118F0030572D1B8F1000F73689D
:105520006EDB5B6808EB07049C4269D8304605F0E7
:10553000CDFF2946304605F0D8FF0446304605F039
:10554000CCFF002C3ED1032F1CD8424604216846D4
:1055500006F017F9044601463046FFF7D7FE2B4BFD
:105560009C422FD13A464946684605F060FE4246C5
:105570000421684606F002F9044601463046FFF76A
:10558000C5FE1FE009F06043B3F1005F34D0DFF8DF
:105590007CA0102F3D4628BF102549462A46684664
:1055A00005F045FE42461021684606F0E7F804463D
:1055B00001463046FFF7AAFE544503D17F1BA9449C
:1055C000A844E6D1304605F07DFF0121304605F0C4
:1055D0008CFF05463069002C08BF2C4603F0BCF94F
:1055E00004F1744000F5A6000A280CD8084B33F9E2
:1055F000100004B0BDE8F087424639464846B9E796
:105600006FF01500F5E76FF00F00F2E70000AD0B4B
:105610007CE00000F0B54FF05023002706463A46E4
:1056200001212B2087B0C3F8B875FFF78FF8344CF1
:105630003449354B7568C4E901134FF4306332695E
:1056400020463249E7602382276000F09DFF00F189
:10565000744000F5A6000A284FD82D4B33F91000EE
:10566000002846D1304605F055FF002841DBE37A9B
:10567000C0B2023B012B3ED9A37A033B012B8CBF66
:1056800000230123C0F38012934201AC19D0012200
:10569000002380F040008DF8000003A93046CDE9DA
:1056A0000223CDF804D005938DF80C200494FFF765
:1056B000DFFEF0B9304605F02DFF002819DBC307E7
:1056C000F8D4002203279F23304603A9CDE90272B4
:1056D000CDF804D004928DF80C300594FFF7C8FE85
:1056E00028B93A466946284605F07AFD08B16FF0B8
:1056F000120007B0F0BD0123C4E76FF00F00F8E718
:105700002C40012011120D0EFFFF0200B9B4000061
:105710007CE000002DE9F84FB1F100080546914604
:1057200046686DDB736842449A4269D8B9F1000F4C
:1057300066D048EA0904C4F30B04002C60D105F0DC
:10574000C5FE2146284605F0D0FE8246284605F0D3
:10575000C4FE2D4FBAF1000F40D1B9F1000F3DD07A
:1057600073684B450DD106F00FF8CB460446214631
:105770002846FFF7CBFDBC4224D1D844A9EB0B0946
:10578000E8E7B9F5803F0AD31FFA88F353B94146D9
:10579000012001F00FF84FF4803B0446E7E7B9F52C
:1057A000805F09D3C8F30B0030B9414601F002F81D
:1057B0004FF4805B0446DAE74FF0000B6FF0150AF8
:1057C0005C46D4E704F1744404F5A6040A2C03D81B
:1057D0000E4B33F914A0BDE76FF00F0A284605F011
:1057E00071FE0121284605F080FE0446286903F079
:1057F000B3F8BAF1000F08BFA2465046BDE8F88FD3
:105800006FF0150AF9E700BF0000AD0B7CE0000067
:10581000024B0B6001231360704700BF34DE0000B1
:10582000004870473CDE00002DE9F7431C460B445E
:10583000B3F5802F0D4617462BD8002929DB44EA03
:10584000010616F0030624D10422FF210DEB02000D
:1058500005F0F8FCDFF8408008EB0509A64208D304
:105860003A4645443C44A2420CD1002003B0BDE876
:10587000F083042209EB06010DEB020005F0B0FCF9
:105880000436EBE72B7812F8011B0B4005F8013BBF
:10589000E9E76FF01500E9E7C869012008B54FF4A2
:1058A0008022FF21024805F0CDFC002008BD00BF8A
:1058B000C8690120104608B51A460B44B3F5802F7D
:1058C00007D8002905DB044B194405F0B0FC002083
:1058D00008BD6FF01500FBE7C86901205318B3F548
:1058E000802F70B51BD8002919DB42EA0106C6F3E8
:1058F0000B06A6B90B4C21F47F6121F00F01150BAB
:105900000C44B54201D1002070BD20464FF48052B6
:10591000FF2105F097FC013604F58054F1E76FF0A4
:105920001500F1E7C86901204FF4802301480B609E
:10593000704700BFC8690120024B0B600123136050
:10594000704700BF4C400120004870475CDE0000FB
:1059500070B50D46144605F004FF2146064628465C
:1059600005F0F3FD00B3B5FBF6F306FB1353DBB90B
:10597000B4FBF6F306FB1340B0B9B44213D34FF0B7
:10598000FF324FF0FF330A4803F006F805F0E9FE56
:105990000646284600F020FCA41B3544F9D10448F3
:1059A00002F0DAFF204670BD6FF01500FBE700BF84
:1059B0005440012010B501220648114607F0E6FCCC
:1059C00005F0D2FE044C206005F0CBFE60600020A4
:1059D00010BD00BF544001204C4001202DE9F04192
:1059E0000E461946304615461C4605F0AEFDB8B3C6
:1059F000CCB34FF0FF324FF0FF331C4802F0CCFF26
:105A000016F003070CD0C7F10407A74228BF2746AA
:105A1000294630463A4600F00FFC3E443D44E41B24
:105A2000002724F00308474507EB060013D16FF069
:105A30000303A20803FB0242E9190AB100F0FCFBD0
:105A40000B4AD2F80034DB07FBD5084802F084FF8C
:105A50000020BDE8F081E95900F0DCFB0437E2E703
:105A60006FF01500F5E72046F3E700BF5440012032
:105A70000090035040EA0103C3F30D0330B58BB926
:105A800040F21515094C890BC0F38730994201D1BA
:105A9000002030BDC218D2B202F5C07244F82250C4
:105AA0000133F3E76FF01500F3E700BF003000505B
:105AB0004FF000531868054B984205D0044B9842AC
:105AC00014BF02200120704700207047B6B3B4B560
:105AD0005DCE03F110220D4B10B5C3F840244FF0FA
