:020000040100F9
:100000003005002175230001E93E0001D5230001E0
:10001000D5230001D5230001D523000100000000F5
:10002000000000000000000000000000B9210001F5
:10003000D52300010000000000000000ED1F0001BA
:100040004D2300014D2300014D2300014D230001EC
:100050004D2300014D2300014D2300014D230001DC
:100060004D2300014D2300014D2300014D230001CC
:100070004D2300014D2300014D2300014D230001BC
:100080004D2300014D2300014D2300014D230001AC
:100090004D2300014D2300014D2300014D2300019C
:1000A0004D2300014D2300014D2300014D2300018C
:1000B0004D2300014D23000100000000000000005E
:1000C0000000000000000000000000000000000030
:1000D0000000000000000000000000000000000020
:1000E0000000000000000000000000000000000010
:1000F0000000000000000000000000000000000000
:1001000000000000000000000000000000000000EF
:1001100000000000000000000000000000000000DF
:1001200000000000000000000000000000000000CF
:1001300000000000000000000000000000000000BF
:1001400000000000000000000000000000000000AF
:10015000000000000000000000000000000000009F
:10016000000000000000000000000000000000008F
:10017000000000000000000000000000000000007F
:10018000000000000000000000000000000000006F
:10019000000000000000000000000000000000005F
:1001A000000000000000000000000000000000004F
:1001B000000000000000000000000000000000003F
:1001C000000000000000000000000000000000002F
:1001D000000000000000000000000000000000001F
:1001E000000000000000000000000000000000000F
:1001F00000000000000000000000000000000000FF
:10020000DEE61E284CBBCE8F023500003C0000000D
:10021000BC530000010000000000000100000001CC
:10022000FFFF02910000000000000000000000003D
:10023000000000000000000000000000FFFFFFFFC2
:1002400053B94AB9002908BF00281CBF4FF0FF313D
:100250004FF0FF3000F070B9ADF1080C6DE904CE3D
:1002600000F006F8DDF804E0DDE9022304B0704791
:100270002DE9F047089E0D4604468A46002B7FD1A3
:100280008A42174641D9B2FA82F24AB1C2F120013C
:1002900005FA02F39740944020FA01F141EA030A7B
:1002A0004FEA17484FEA144C1FFA87F9BAFBF8FED9
:1002B00008FB1EA30EFB09F14CEA0343994206D941
:1002C000FB1802D2994200F224810EF1FF3E591A26
:1002D000A3B2B1FBF8F008FB101100FB09F943EAE7
:1002E0000144A14505D93C1902D2A14500F20E8175
:1002F0000138A4EB090440EA0E4000211EB1D440AD
:100300000023C6E90043BDE8F08702B9FFDEB2FA78
:1003100082F2002A4FD1CB1B4FEA174E1FFA87F803
:100320000121250CB3FBFEFC0EFB1C302B4608FB09
:100330000CF945EA0045A9450AD97D192CBF0123CE
:100340000023A94502D9002B00F0D9800CF1FF3C15
:10035000A5EB0905A3B2B5FBFEF00EFB105508FB9B
:1003600000F843EA0544A04505D93C1902D2A0454E
:1003700000F2C9800138A4EB080440EA0C40BDE754
:100380008B4208D9002E00F0B1800021C6E900059B
:100390000846BDE8F087B3FA83F1002946D1AB42A5
:1003A000C0F0A780824240F2A4800846002EAAD066
:1003B000C6E9004AA7E7C2F12000974001FA02F31C
:1003C0004FEA174EC14024FA00F51FFA87F894400F
:1003D0001D43B1FBFEF02B0C0EFB101100FB08FCC3
:1003E00043EA01439C4509D9FB182CBF0121002198
:1003F0009C4502D9002900F095800138A3EB0C033D
:10040000ADB2B3FBFEF10EFB113301FB08FC45EA74
:100410000345AC4505D97D1902D2AC4500F289806F
:100420000139A5EB0C0341EA00417AE7C1F1200450
:100430008B4002FA01F705FA01FCE24020FA04F8C9
:10044000E54000FA01FE134348EA0C024FEA134864
:100450004FEA124C1FFA83F9B5FBF8FA08FB1A555C
:100460000AFB09F04CEA054C60450AD913EB0C0C69
:100470002CBF01250025604501D9002D55D00AF17A
:10048000FF3AACEB000C92B2BCFBF8F008FB10CCCE
:1004900000FB09F942EA0C4CE14505D913EB0C0CC1
:1004A00001D2E1453BD8013840EA0A40ACEB090CE7
:1004B000A0FB0789CC4545464A4602D306D1C6452E
:1004C00004D20138B8EB070569EB03022EB3BEEB8B
:1004D00005036CEB020C23FA01F20CFA04F42CFA7B
:1004E00001F300211443C6E900430CE731463046CE
:1004F00009E7841A65EB030301209A4656E7ACF13D
:10050000020C3D4424E702383C4434E702383C44C2
:10051000EFE6AEF1020E3B44D9E63146F3E602388F
:100520009C44C1E702383B4468E7AAF1020A9C44B4
:10053000A7E702393D4474E7704700BF30B44FF07D
:10054000000310F8014B11F8015B013A84EA05043D
:1005500043EA0403F5D1A3F101034FEAD37030BCA1
:10056000704700BF4FF0000310F8012B013943EA38
:100570000203F9D1A3F101034FEAD370704700BF22
:1005800011F8013B00F8013B013AF9D1704700BF77
:10059000002200F8012B0139FBD170472DE9F04F03
:1005A00092E8F00F4FF0020E88EA781C8CEAF84CC3
:1005B0000BEBBC1C8AEA090303EA080383EA0A037B
:1005C0009C4450F8043B9C4451F8043B9C446744D1
:1005D00044EA050B0BEA060B04EA05034BEA030B9E
:1005E000E34484EAF42383EA34530BEBB30B87EA46
:1005F000771C8CEAF74C0AEBBC1C89EA080303EA77
:10060000070383EA09039C4450F8043B9C4451F8D7
:10061000043B9C4466444BEA040A0AEA050A0BEAD6
:1006200004034AEA030AE2448BEAFB2383EA3B53CE
:100630000AEBB30A86EA761C8CEAF64C09EBBC1C82
:1006400088EA070303EA060383EA08039C4450F898
:10065000043B9C4451F8043B9C4465444AEA0B0922
:1006600009EA04090AEA0B0349EA0309E1448AEAB0
:10067000FA2383EA3A5309EBB30985EA751C8CEA3D
:10068000F54C08EBBC1C87EA060303EA050383EA82
:1006900007039C4450F8043B9C4451F8043B9C44A1
:1006A000644449EA0A0808EA0B0809EA0A0348EA26
:1006B0000308E04489EAF92383EA395308EBB308D5
:1006C00084EA741C8CEAF44C07EBBC1C86EA050334
:1006D00003EA040383EA06039C4450F8043B9C4469
:1006E00051F8043B9C44E34448EA090707EA0A0737
:1006F00008EA090347EA0307674488EAF82383EA1C
:10070000385307EBB3078BEA7B1C8CEAFB4C06EBF8
:10071000BC1C85EA040303EA0B0383EA05039C443B
:1007200050F8043B9C4451F8043B9C44E24447EAA3
:10073000080606EA090607EA080346EA03066644CD
:1007400087EAF72383EA375306EBB3068AEA7A1C73
:100750008CEAFA4C05EBBC1C84EA0B0303EA0A039F
:1007600083EA04039C4450F8043B9C4451F8043B46
:100770009C44E14446EA070505EA080506EA070342
:1007800045EA0305654486EAF62383EA365305EB1A
:10079000B30589EA791C8CEAF94C04EBBC1C8BEAA2
:1007A0000A0303EA090383EA0B039C4450F8043B61
:1007B0009C4451F8043B9C44E04445EA060404EAA6
:1007C000070405EA060344EA0304644485EAF523C2
:1007D00083EA355304EBB304BEF1010E7FF4E4AEBB
:1007E00082E8F00FBDE8F08F2DE9F04F90E8FC03B0
:1007F000D0E9091CD0E90EAB0A444FEA7A4E8EEAE2
:10080000FA4E8EEA9A2E72444FEAF31E8EEAB34EE7
:100810008EEAD30E724463444FEA7B4E8EEAFB4E5F
:100820008EEA9B2E73444FEAF41E8EEAB44E8EEA93
:10083000D40E7344D0E90B1A0C444FEA724E8EEA80
:10084000F24E8EEA922E74444FEAF51E8EEAB54EB1
:100850008EEAD50E744455444FEA734E8EEAF34E39
:100860008EEA932E75444FEAF61E8EEAB64E8EEA55
:10087000D60E7544D0E90DEA76444FEA744E8EEAFE
:10088000F44E8EEA942E76444FEAF71E8EEAB74E67
:100890008EEAD70E764457444FEA754E8EEAF54EEF
:1008A0008EEA952E77444FEAF81E8EEAB84E8EEA0D
:1008B000D80E7744D8444FEA764E8EEAF64E8EEA4A
:1008C000962EF0444FEAF91E8EEAB94E8EEAD90E02
:1008D000F044D0E908AB91444FEA774E8EEAF74EE8
:1008E0008EEA972EF1444FEAFA1E8EEABA4E8EEA4D
:1008F000DA0EF1449A444FEA784E8EEAF84E8EEAC8
:10090000982EF2444FEAFB1E8EEABB4E8EEADB0EB7
:10091000F244A3444FEA794E8EEAF94E8EEA992EBC
:10092000F3444FEAFC1E8EEABC4E8EEADC0EF34422
:10093000AC444FEA7A4E8EEAFA4E8EEA9A2EF4448E
:100940004FEAF11E8EEAB14E8EEAD10EF444A0E8D1
:10095000FC1FD0E9014531444FEA7B4E8EEAFB4E45
:100960008EEA9B2E71444FEAF41E8EEAB44E8EEA54
:10097000D40E71443C444FEA7C4E8EEAFC4E8EEA23
:100980009C2E74444FEAF51E8EEAB54E8EEAD50EC3
:100990007444D0E9036745444FEA714E8EEAF14E44
:1009A0008EEA912E75444FEAF61E8EEAB64E8EEA16
:1009B000D60E75444E444FEA744E8EEAF44E8EEADB
:1009C000942E76444FEAF71E8EEAB74E8EEAD70E83
:1009D000764457444FEA754E8EEAF54E8EEA952ED0
:1009E00077444FEAF21E8EEAB24E8EEAD20E774478
:1009F000F2C0BDE8F08F00BF2DE9F04F0FF2D02913
:100A0000D9E900890FF2D02BDBE900AB00269BB0BF
:100A1000CDE900890FF2C829D9E90089CDE902ABF7
:100A20000FF2C42BDBE900AB14460546CDE9186292
:100A3000CDE90489CDE906AB002A79D180230120D4
:100A40008DF820303A210E23E846CDF8212008AF5A
:100A50000DF125020026022B166021D0032B5660D3
:100A60001ED0042B96601BD0052BD66018D0062B09
:100A7000166115D0072B566112D0082B96610FD046
:100A8000092BD6610CD00A2B166209D00B2B5662AB
:100A900006D00C2B966203D00E2BD66208BF1663CD
:100AA000B1EB830F00EB830012D0431C00221AA984
:100AB00001443B2B01F8482C0AD01AA90B443928D1
:100AC00003F8482C00F1020302D00B4403F8482C31
:100AD000620F630D39468DF85B208DF85C30620B38
:100AE00063094046E4008DF85D208DF85E308DF896
:100AF0005F4002F0BBFFDDE90064DDE90201DDE9F2
:100B0000042396FA86FC27BA06BA0CBA10BA19BAA8
:100B1000069A079B12BA1BBAC5F800C06F60AE6098
:100B2000EC6028616961AA61EB611BB0BDE8F08FE0
:100B3000E84640460F4602F0D9FE241A03462744F1
:100B4000002800F0B980421E022A44D93968820880
:100B5000012A08913AD07968022A099136D0B968F9
:100B6000032A0A9132D0F968042A0B912ED03969F0
:100B7000052A0C912AD07969062A0D9126D0B969E7
:100B8000072A0E9122D0F969082A0F911ED0396ADE
:100B9000092A10911AD0796A0A2A119116D0B96AD5
:100BA0000B2A129112D0F96A0C2A13910ED0396BCC
:100BB0000D2A14910AD0796B0E2A159106D00F2AAE
:100BC000B96B18BFFA6B169118BF179223F0030682
:100BD000B342374413D03878721C1AA93144934277
:100BE00001F8480C0BD979781AA802360244B342AE
:100BF00002F8481C03D9BA78064406F8482C80212C
:100C0000581C1AAA1A443828189302F8481C98BF8E
:100C100008AF35D93F282CD800211AAA10443E2B02
:100C200000F8481C03F1020223D01AA802443D2B0D
:100C300002F8481C03F103021BD002443C2B02F8CB
:100C4000481C03F1040214D002443B2B02F8481C58
:100C500003F105020DD002443A2B02F8481C03F1BF
:100C6000060206D00244382B02F8481C01D18DF848
:100C70005F1008AF3946404602F0F8FE3A2819D80E
:100C8000431C3B2BC0F13A02C0F13B0188BF01215C
:100C9000022A199C7FF60AAF002600F1200308EB18
:100CA000030248F803608B08012B02F104027FF471
:100CB000D1AEF5E6199C0BE7802218903A2101206D
:100CC000199C8DF8202008AFE6E700BFAFF3008045
:100CD00067E6096A85AE67BB72F36E3C3AF54FA5CD
:100CE0007F520E518C68059BABD9831F19CDE05BF9
:100CF0002DE9F0434FF4084185B04FF0807003F0C8
:100D0000B2F904462A4802F05DFC06462CB1294897
:100D100002F050FF02F002F947E002F0C5F8054684
:100D200002F004F9E8B903F015FA04460146284632
:100D300003F0C3F910B921461F4805E0304602F020
:100D400007F9014618B11D4802F034FFE2E72946D1
:100D5000284603F0B2F910B102F036F9FEE7294651
:100D6000EAE74FF45E31164803F07DF9014608B119
:100D70001448E9E70446DFF85090DFF8508001AFEF
:100D800059F8046B98E807002E4487E807000C2206
:100D90003946304603F0CBF800B91EB90134052CB2
:100DA000EED10026304601F027FF05B0BDE8F08304
:100DB00094450001A7450001D5450001FF4500010C
:100DC000008800011E460001D84300019043000145
:100DD00038B54468054604F00304032C816002D052
:100DE0002CB1002000E0006800236B6038BD452274
:100DF0000449054802F0DEFE4521024802F0AAFF40
:100E0000EFE700BF40460001634600010B68013375
:100E10000B60014B1B6818470000002107B50B460B
:100E2000002102460191034801A900F0E9F903B04D
:100E30005DF804FB0D0E00012DE9F74FB0F81880A6
:100E4000044618F0080F92460ED001290CBF48F056
:100E5000100848F02008A0F818808AF31188BFF322
:100E60006F8F03B0BDE8F08FB34FDFF8D49208F076
:100E70000708022906D1204602F0A9FE0028ECD07E
:100E8000012863D1D4F814B0228BBBF1000F17DA1C
:100E90000026256822F00702C4E9006642F001023C
:100EA0002283218B01F00702424503D0A06800286D
:100EB00040F0F08015B9002E00F007810020EAE034
:100EC00002F00701481F012822D8002022F0070263
:100ED0000629256892B2C4E900000CD18542294652
:100EE00038BF014629B1608B096801306083002951
:100EF000F8D142F002022046228302F068FE064644
:100F00000028CED0228B42F0200222830026C8E7A0
:100F100004290DD122F0070292B22046228302F06A
:100F200056FE054680B142F0200200252283EDE7FF
:100F300040F21B123946484602F03CFE40F21B11BB
:100F4000384602F007FF00252E46AAE7032831D1D4
:100F5000B8F1000F0AD0394648464FF4AB7202F0A0
:100F600029FE4FF4AB71384602F0F4FE236853B902
:100F70003946484640F2571202F01CFE40F2571123
:100F8000384602F0E7FE23691E6856B939464846DE
:100F90004FF4AD7202F00EFE4FF4AD71384602F020
:100FA000D9FE238B23F0070343F006030025238398
:100FB000AB4676E704282ED1B8F1020F0AD03946A5
:100FC000484640F25D1202F0F5FD40F25D113846F0
:100FD00002F0C0FE638B53B1394648464FF4AF72FE
:100FE00002F0E8FD4FF4AF71384602F0B3FE23691A
:100FF0005E6856B93946484640F2611202F0DAFDA1
:1010000040F26111384602F0A5FE238B23F007035E
:1010100043F00403CAE705282ED1B8F1010F0AD026
:10102000394648464FF4B27202F0C4FD4FF4B27133
:10103000384602F08FFE236853B93946484640F2DD
:10104000651202F0B7FD40F26511384602F082FEEB
:1010500023699E6856B9394648464FF4B47202F087
:10106000A9FD4FF4B471384602F074FE238B23F0CF
:10107000070343F0050399E7002540F26B12394658
:10108000484602F097FD40F26B11384602F062FECE
:101090002E468DE7012041F0080121838AF3118853
:1010A000BFF36F8F00BB002D34D116B1204623490A
:1010B000B0474FF02003EFF3118A83F31188BFF399
:1010C0006F8F238B23F008032383238BDA062AD523
:1010D000012123F010032383B4F8188008F00708D7
:1010E00000297FF4C6AEB8E6A1680029DBD0086805
:1010F000002838BF002080465B462046D1F804A077
:101100000192D047019AB8F1000FCCD04146D8F8EF
:101110000000EDE729465B46204601922D6802F06B
:1011200072FD019ABFE713F020011EBF23F02003D8
:1011300002212383D0E700BF7B460001333C00013E
:10114000634600012DE9F04104460F4602F07FFDA1
:10115000051E32DB4FF02003EFF3118883F3118873
:10116000BFF36F8F4FF6FF71638B228B8B4202F0C0
:1011700007063AD0022E0FD101336383354601238F
:1011800088F31188BFF36F8FBBB100233246394615
:10119000204602F038FD10E0930701D0062E0FD153
:1011A00000233B606368EBB9C4E900773546F6B9C4
:1011B000424602212046FFF73FFE2846BDE8F08167
:1011C000052E16D0012E0AD00B490C4840F2C91248
:1011D00002F0F0FC40F2C911074802F0BBFD6FF0CD
:1011E000040504E01F606760E0E76FF00A05002374
:1011F000C6E76FF08505FAE77B460001634600010C
:101200002DE9F04F8B4692461C46002591B0029086
:101210009AF8000008B928465EE325280AF101077C
:1012200007D05946029B98470028C0F255830135E4
:1012300010E2182200210AA802F094FE9AF8013068
:10124000252B78D0002294461646964610463946FD
:1012500017F8013B2B2B00F09D8000F29480202B8F
:1012600000F09B80232B00F09A8028B19DF830007D
:1012700040F004008DF83000BEF1000F05D09DF85D
:10128000300040F008008DF830002EB19DF830009D
:1012900040F010008DF83000BCF1000F05D09DF833
:1012A000300040F020008DF830002AB19DF8302049
:1012B00042F040028DF830209DF8302002F04400CA
:1012C000442803D16FF386128DF830209DF830202A
:1012D0002A2B42F080028DF830207BD19DF83120FE
:1012E0004B1C42F001028DF831201A782E2A0CBFD7
:1012F000012100219DF8312061F341028DF8312058
:1013000074D15A782A2A6AD000210A260133184655
:1013100010F8012BA2F13007092F40F28E809DF8C2
:1013200030200E91C2F3400040EAD17161F34102D6
:101330008DF830205AE00AF102078DF833309DF81D
:101340003130D90740F1498154F8049BB9F1000FBD
:1013500007DA9DF83020C9F1000942F004028DF847
:1013600030205A0740F1428154F8048BB8F1000F45
:1013700080F241819DF831306FF341038DF83130B7
:101380004FF0FF3837E12D2B0CD0302B7FF46DAFB1
:1013900001225CE74FF0010E59E7012657E74FF0B5
:1013A000010C54E7012052E733460CFB0202303AAD
:1013B0001E4616F8010BA0F13007092FF4D9994207
:1013C00093D09DF830100D92D20F62F341018DF849
:1013D00030108AE70B4600224FF00A0CE8E79DF830
:1013E0003120023342F004028DF831201F4617F8F5
:1013F000012B6C2A41D025D8682A2BD06A2A46D0E6
:101400004C2A4CD01F4617F8012B9DF83130782A12
:101410008DF8332000F2D980572A4DD8412A03D0C5
:10142000453A022A00F2D18004229DF8323062F35C
:1014300002038DF8323001239EE006FB01210346B2
:10144000303964E7742A26D07A2ADBD106229DF847
:1014500031300DE05A78682A9DF8312006D10121FB
:1014600061F3C6028DF831209F1CCCE7134602229F
:1014700062F3C6038DF83130C5E75A786C2A9DF8BF
:10148000312001D10421EBE713460322F0E70522C6
:101490009DF83130ECE707229DF83130E8E7BDF8E0
:1014A000303023F4F04323F0020343F4804343F04D
:1014B0000203ADF83030A6E7A2F15801202900F26E
:1014C000848001A050F821F08D150001CB1500019A
:1014D000CB150001CB150001CB150001CB15000188
:1014E000CB150001CB150001CB150001291400011B
:1014F000CB1500018D1500014D15000129140001C7
:101500002914000129140001CB1500014D1500011B
:10151000CB150001CB150001CB150001CB15000147
:10152000951500018D150001B1150001CB150001C5
:10153000CB150001B1150001CB1500018D1500017F
:10154000CB150001CB1500018D15000101209DF880
:10155000321003F0780360F30201402B8DF8321053
:1015600002BF9DF8301041F001018DF83010632A60
:1015700031D1003B18BF01239DF83020C2F3400158
:101580000B4363F341028DF83020D8E602209DF82A
:101590003210DEE703219DF8322003F07803A3F137
:1015A000400061F3020243428DF832204341E3E7F9
:1015B00003219DF8322013F0780F61F3020214BF6B
:1015C000012300238DF83220D6E79DF8303043F018
:1015D00001038DF830300023CEE79DF93020002A3A
:1015E000ACBF4FF0FF39DDF83490BAE69B077FF5CA
:1015F000C7AEDDF838800023CDE90D339DF83230D9
:101600009DF8312003F00703012BC2F3C30236D14A
:10161000D31E042B20D8DFE803F00307071F1F00A9
:1016200054F8040BC11704E0073424F00704F4E86D
:101630000201CDE90A019DF8303013F0030654D0C1
:101640003B4652465946029802F06EFB0028C0F213
:1016500043810544BA46DBE554F8040B012A4FEAFE
:10166000E071CDE90A0105D19DF828300A930023E5
:101670000B93E0E7022ADED1BDF92800D2E7022B66
:1016800023D1D31E042B13D8DFE803F0030A0A1278
:10169000120000212068231D0A900B911C46CAE706
:1016A000073424F00703F3E80201CDE90A01F5E766
:1016B00054F8043B012A0A934FF000030B93D3D054
:1016C000022AB8D1BDF82830D0E7042B07D107345F
:1016D00024F00704F4E80201CDE90A01ABE7032B8B
:1016E00004BF54F8043B0A93A5E79DF8330078281B
:1016F000B0D8622822D825283FF493AD5828A9D124
:10170000DDE90A010DF1260300930CAA04AB02F0F7
:10171000C0FA8246B8F1000F0DF126000CDB9DF8EF
:101720003020A0EB0A036FF3861298458DF8302025
:1017300002D9A8EB03030D9380463DE063381528DA
:1017400088D801A151F820F0C91700012D18000117
:1017500055160001551600015516000155160001D9
:101760002D180001551600015516000155160001EF
:10177000551600018B180001591800015D18000171
:101780005516000155160001A1170001551600015C
:10179000591800015516000155160001591800018D
:1017A000B8F1000FDDF828A00ADB4146504602F0F0
:1017B000A9FB00260AEB0008BAF1000F0CD149E79B
:1017C000504602F098FBF4E700260A9B0DF1110841
:1017D0008DF810300DF1100AA8EB0A0306B10133A1
:1017E0009DF83220D0066BD5023352060D9948BFC2
:1017F0000E9A0B4448BF9B18B9F1000F79DD9DF894
:101800003020A9EB0309C2F380030393530770D47C
:10181000500664D546B159463046029B9847002889
:101820005ADB039B01351E46302359E01E0711D4B5
:1018300013F0100618BF2026DDE90A23002A73F1F1
:101840000001BFF65DAF524263EB43032D26CDE9A5
:101850000A2355E72B26EFE7002651E70A9848B3FD
:101860000DF126030093002104AB0CAA02F011FA3B
:10187000BDF83230824603F0EF0343F4F04343F007
:1018800010030026ADF8323044E70A9B072A3FF6E2
:10189000E1AEDFE802F00D04060D08080D0D1D7025
:1018A000D8E61D80D6E62846E917C3E90001D1E64F
:1018B0001D60CFE6DFF8C4800646A8F1050A8BE775
:1018C000110748BF013390E7184603935946029B1E
:1018D00098470028039B04DA11B0BDE8F08F20235D
:1018E0004D444A46002AA5EB090109F1FF39EBDC1A
:1018F0000D4636B159463046029B98470028EBDB2F
:1019000001359DF83230D90601D41A0706D559465B
:101910003020029B98470028DEDB01359DF83230ED
:10192000DB0607D559469DF83300029B98470028EF
:10193000D2DB01350D9E2E44731B002B16DC434673
:1019400052465946029802F0EFF90028C4DB0544DC
:10195000A944A9EB0503002B7FF77CAE5946202054
:10196000029B98470028B7DB0135F2E75946302043
:10197000029B98470028AFDB0135DDE7A246000156
:101980004FF02002EFF3118382F31188BFF36F8FC2
:101990000121044AC2F8401583F31188BFF36F8F09
:1019A000002070470000084120B1034B800143F044
:1019B00001031847704700BFD043000142680B681D
:1019C00010B593420C4606D90548452102F0CAF9E4
:1019D0000020606010BD4B68012013444B60F9E7A4
:1019E000A74600012DE9F043054685B0C06801AA6D
:1019F00002F009FB044640B145210246154802F0B9
:101A0000B1F9204605B0BDE8F083DDF804802B6A0B
:101A10004345F6D0EE68DDF80890B768FB685BB91F
:101A2000BB684A46414630469847FB6804466BB956
:101A300044B9019B2B62E4E70146304698470446CF
:101A40000028EDD0224645210348D8E70121304641
:101A50009847EDE7CC460001F24600012DE9F0473A
:101A60008468064674B1D0E90437013C1F44E1198B
:101A7000FFF7B8FF041E08DA3B46224645213748E7
:101A800002F070F92046BDE8F087F06802F077F9BF
:101A9000B268B2FBF0F400FB14245CB1041BF068E4
:101AA00083681B6998473568B36801792246E8184E
:101AB00002F058FAB568D6F80C80D6F800A0254494
:101AC000D8F80890D9F80C30A3B92B46D9F80440BF
:101AD000524639464046A047D9F80C300446A3B9CF
:101AE00074B9F3695BBB3369B26813443361002393
:101AF000B360C7E700214046984704460028E4D079
:101B00003B46224645211648BAE701214046984700
:101B1000E6E7535CDB4353540131B36832688B42D0
:101B2000F7D8F06881680D683946A847054640B186
:101B3000452102460B4802F015F92C46A2E7214642
:101B4000EBE73A46F369B1683068984705460028E4
:101B5000C9D0024645210448EDE700BF1347000104
:101B6000464700016F4700018A4700012DE9F7430E
:101B70000D46DDE90A8691461F46044620B96FF0FE
:101B80000D0003B0BDE8F0830029F8D0002AF6D09C
:101B9000009300230193084602F0F1F8B7FBF0F33D
:101BA00003FB107020B14521174802F0DBF8E6E78F
:101BB0006A462846154902F02AFA019B002BDED01E
:101BC00008EB0602934202D245211148EDE7284670
:101BD00002F0D5F8B8FBF0F303FB10800028F3D136
:101BE000C4E90097E5602061A060C4F8148016B9CC
:101BF000019EA6EB08060C9B0020E3614FF0FF332B
:101C0000A6612362BDE700BFA3470001BD19000123
:101C1000DF4700012DE9F0410F4C104D031B9B10D5
:101C20005D43EBB20C255D43074605F140000E46CF
:101C30002044402102F0EDF8011E08DB084B2C4443
:101C4000C4E90E36074B5B59BDE8F04118473846EA
:101C50003346BDE8F0411847A4000021B76DDBB65C
:101C60007B3E00010044000138B5CCB2012C054692
:101C700008D9084908487E2201F09CFF7E210548CA
:101C800002F068F80C212B6904FB0134206C00F091
:101C9000070038BD0548000163460001F8B5CCB225
:101CA000012C0546164607690AD91849184840F21A
:101CB000531201F07FFF40F25311144802F04AF82A
:101CC0004FF02003EFF3118283F31188BFF36F8F7E
:101CD0000C2303FB0471096C11F0C00101D08E428A
:101CE00011D10121002003FB0473196482F31188D0
:101CF000BFF36F8F30B90C23696803FB041463686A
:101D000098470020F8BD4FF0FF30EFE7054800018D
:101D100063460001084B70B5C31A0D4607499B1076
:101D20000446594340220648FFF7B8FF2B460146B8
:101D30002046BDE870401847A4000021B76DDBB60F
:101D40000442000170B5002201210446052000F084
:101D500061FA052000F040FA0F4801F081FA0F4BBC
:101D6000984215D101F09CFA26690D49304601F0E0
:101D70007DFF00280BDB012535642469084904F147
:101D80001C0001F073FF002801DB0020E56470BD3A
:101D90006FF00400FBE700BFD91D00010000AD0B90
:101DA0001844000101460C2300224B43084870B53B
:101DB000C4184033D4E90E561844A26302F047F821
:101DC0002DB132462B46BDE870400248184770BD21
:101DD000A400002104420001012808B506D0032810
:101DE00008D0A0B90F4B1B6C5B0719D1BDE80840A8
:101DF000FFF7D8BF0C4940F266220C4801F0DAFE2A
:101E000040F26621BDE80840074801F0A3BF06493B
:101E100040F26A22054801F0CDFE40F26A21F1E766
:101E200008BD00BFA4000021054800016346000171
:101E300008B54FF02003EFF3118183F31188BFF34E
:101E40006F8F114A136843F0020013F00103106012
:101E50000BD00E4AD2F80C34D2F80C2413F0010344
:101E600003D00B4801F0F3FF012381F31188BFF386
:101E70006F8F23B1BDE808400020FFF793BF01201A
:101E8000BDE8084001F02EBAF400002100500041E6
:101E9000E4000021074BD3E8EF2F22F00201C3E852
:101EA000E01F0028F7D1D30702D4012001F06ABA5D
:101EB000704700BFF40000212DE9F84301220746D6
:101EC0004049D1E8EF3FC1E8E02F0028F9D19BB9A4
:101ED0003D493E484B60CB608A60FFF733F90028EC
:101EE0000ADA3B493B4840F2262201F063FE40F209
:101EF0002621374801F02EFF8FB37B1E012B4DD8D2
:101F0000012F06D1344BD3F81C3403F00303022B0A
:101F100025D002F04DF9044618B9304B1B78002B40
:101F200049D14FF02003EFF3118583F31188BFF3FC
:101F30006F8F0124284EDFF8B090B046D6F81834E1
:101F4000D6F81824D2030CD503F00303022B01D0DA
:101F5000012F06D1F4B185F31188BFF36F8FBDE86F
:101F6000F883284600F0A0F9D6F81835DBB2012B2B
:101F7000E4D11B4A11680029E0D0002111601268E9
:101F800002222021C6F81825164AC2F88011C9F885
:101F90000030D3E70223C8F80433E0E70C490D48CA
:101FA0004FF40E7201F006FEBDE8F8434FF40E71D7
:101FB000074801F0CFBE0222074B0546C3F80823AD
:101FC000B8E700BFF800002194000021C000002104
:101FD0000548000163460001005000412C0100212A
:101FE0000451004100E100E00850004110B5064CEA
:101FF00006482146172201F0DDFD2046BDE81040CD
:10200000172101F0A7BE00BF62480001634600012E
:102010002DE9F0474FF480374FF00009860000F1BA
:10202000500406F18246A40006F5B036A4B204F1CD
:102030008244D6F84035DFF86C8021F07F4504F506
:10204000B0348740D8F804A5A3EB0A0323F07F43FC
:102050002AF07F42012BC6F8402502D1132002F05E
:10206000ADF80AF10202AB1A23F07F43B3F5000F7B
:1020700088BF1546C4F80090236825F07F43C8F850
:102080004473C6F84035D8F804359A4506D0EB1AA3
:10209000023B23F07F43B3F5000F01D8BDE8F08782
:1020A0002B46CFE700600141002238B50B4D2B686D
:1020B000CC1A24F07F4419192960094B094D0131CC
:1020C00043F8305003EBC0035A60FFF7A1FF201E16
:1020D00018BF0120BDE8384001F0A2BB0C0100216F
:1020E00000010021A9200001F8B50026134C144F6F
:1020F00000202568134B06B1F8BDD3F80423D203A2
:10210000FAD53A68002AF7D03E603A684FF4803238
:10211000C3F84823D3F84015D3F804250126531AF1
:1021200023F07F43B3F5000F88BF11461DB16268ED
:102130002060A847DCE72560DEE700BF0001002142
:10214000406101410060014138B500244FF4803303
:102150004FF48002124D0121C5F80845C5F804333B
:10216000104B1620C3F88021224600F053F81620A9
:1021700000F032F801230C4A204613600B4A2B6012
:102180001360D5F804150A4B0A4A0131C3E900244B
:10219000FFF73EFF0220FFF78FFE204638BD00BF4D
:1021A0000060014100E100E00860014108010021F8
:1021B00000010021A92000011EF0040F0CBFEFF365
:1021C0000880EFF30980816911F8021C0229FFD011
:1021D00001B501F085FE01BD43B2002B08DB0122F1
:1021E00000F01F0002FA00F0024A5B0942F82300E7
:1021F000704700BF00E100E0054B420953F8222080
:10220000012300F01F0003FA00F01040704700BFE8
:1022100000E100E038B54C1C072C054608D90D49F3
:102220000D48582201F0C6FC58210A4801F092FDE1
:102230006BB2002BACBF03F16043084B4FEA441470
:10224000E4B2ABBF03F5614305F00F0583F800432B
:102250005C5538BD9E4800016346000114ED00E066
:102260000446084611461A46002383F30B880A4B9E
:102270002025A3F5806686F30B8883F3098863B66F
:102280004FF0000383F31188BFF36F8FA04785F3EE
:102290001188BFF36F8FFEE730050021014910223E
:1022A0000A60704710ED00E072B6494081F3118872
:1022B00020BF80F3118862B6704700BF37B505466E
:1022C0000C46C9B18B6810480093D1E90023452121
:1022D00001F048FD636945210093D4E903230B48CD
:1022E00001F040FD4521E269094801F03BFD45212F
:1022F000A269084801F036FD2146284603B0BDE832
:10230000304001F08BB900BFD448000108490001FA
:102310003C4900015049000130BFFFF7FDBF00BF3D
:1023200008B5084B084A23F07F039360BFF34F8F33
:10233000BFF36F8F01F0BEF901F010FA00F082FADE
:1023400001F0DAF90000000100ED00E001B5EFF363
:102350000580A0F110004FEAC0000449014409C9FA
:102360009847BDE801400249084700004C4200017F
:10237000B1270001002080F31488BFF36F8F002085
:1023800080F30A8880F30B8801F01EFF00200E49BD
:102390000860BFF34F8F0D4880F3088800F02CFAD7
:1023A000202080F311880A484FF40061401880F320
:1023B0000988EFF314800221084380F31488BFF3E7
:1023C0006F8FFFF7ADFF000094ED00E030050021B6
:1023D00030050021EFF30880EFF3098101B5724663
:1023E00000F00CF901BD00BF70B5274C06460D4644
:1023F0002648452101F0B6FCA26AD00603D5452146
:10240000234801F0AFFCA36A190703D545212148F1
:1024100001F0A8FC1C4CA36A9A0710D545211E4860
:1024200001F0A0FC626BA36A1B0608D545211B487E
:1024300001F098FC1EB1A36A23F08003A362124C42
:10244000A36AD80703D54521154801F08BFCA36A80
:10245000D90602D4A36A9A070ED50B4B9B6ADB06FA
:102460000AD51049104840F24F1201F0A3FB40F288
:102470004F110C4801F06EFC0020034A936A43F0B0
:10248000FF039362287070BD00ED00E083490001F6
:102490009E490001D6490001EE4900010B4A0001A6
:1024A000264A00014A4A00016346000170B5204CEB
:1024B00006460D461F48452101F054FCA26AD3048C
:1024C00003D545211C4801F04DFCA36A1C0503D52A
:1024D00045211A4801F046FC154CA36A980510D511
:1024E0004521174801F03EFCA26BA36A190408D5E8
:1024F0004521144801F036FC1EB1A36A23F40043C1
:10250000A3620B4CA26A520503D545210E4801F087
:1025100029FCA36ADB0503D545210C4801F022FC08
:102520000020034A936A43F47F439362287070BD8E
:1025300000ED00E0844A00019F4A0001D6490001F5
:10254000B54A0001D34A0001ED4A00010D4B0001DC
:1025500038B5214C4521214801F004FCA26A9501BF
:1025600003D545211E4801F0FDFBA36ADC0103D51C
:1025700045211C4801F0F6FB174DAC6A14F4801499
:1025800004D04521184801F0EDFB0224AB6A180382
:1025900003D54521154801F0E5FB0F4DAA6A51030B
:1025A00003D54521124801F0DDFBAB6A9A0303D540
:1025B0004521104801F0D6FB074DAB6ADB0303D57C
:1025C00045210D4801F0CEFBAB6A20466FEA03437C
:1025D0006FEA1343AB6238BD00ED00E02A4B000107
:1025E000474B00015F4B00017E4B0001AD4B0001EA
:1025F000D04B0001FA4B0001194C00012DE9F041CC
:10260000574B0E46D3F8048000258AB0C8F308075C
:1026100085F31188BFF36F8F02F07F43B3F17F4FD3
:1026200007D102F00C03082B10D145214D4801F0D1
:1026300099FB40F2E1324C494C4801F0BBFA40F2C0
:10264000E131494801F086FB002605E012075CBF36
:1026500006460125002EECD00023FA1E1C468DF8FC
:1026600007301346092B69D8DFE803F00551554EB2
:1026700068686868685945213D4801F073FB384B2C
:102680008DF80740DC6A14F0020405D04521394872
:1026900001F068FB00240FE0DB6A5B000CD54521EC
:1026A000354801F05FFB354B1B78FBB101200DF184
:1026B0000701FFF799FE04469DF807309BB92022D9
:1026C000314602A801F043FC099B002D43D0C3F31F
:1026D000080222B96FEA53236FEA43230993204685
:1026E00002A9FFF7EBFD0AB0BDE8F081244B1B788F
:1026F0002BB101200DF10701FFF7D8FEDBE7214BDD
:102700001B889BB2002BD7D0FFF722FFD3E7002016
:102710000DF10701CDE700200DF10701ECE74521A0
:10272000194801F01FFB00F0DBF8002418B9012361
:102730008DF80730AEE78DF80740BDE7134918F470
:10274000F87F134A134808BF0A46A7F11003452132
:1027500001F008FB9EE723F4FF7323F00103BDE7BC
:1027600000ED00E0774C00014A4A00016346000199
:10277000A74C0001C34C0001E94C000128ED00E02A
:1027800029ED00E02AED00E00D4D0001494C00016B
:102790005E4C0001364D0001044B5A6942F01002B4
:1027A0005A615A6942F480625A61704700ED00E054
:1027B000704700BFBFF34F8F0549064BCA6802F44C
:1027C000E0621343CB60BFF34F8F00BFFDE700BF54
:1027D00000ED00E00400FA0500231846054A1168E0
:1027E000C1F307218B4200D1704793601061013320
:1027F000F8E700BF90ED00E010B572B6002484F356
:102800001388FFF7E9FF0E4A234611464FF0FF34C5
:1028100003F120000133102B42F82040F8D10023AF
:102820004FF0FF3003F160020133102B41F822001A
:10283000F8D162B6BFF34F8FBFF36F8F10BD00BFEB
:1028400000E100E0002320210348C21801331E2BC1
:1028500082F80013F9D1704700E100E010B51A4C7E
:10286000E26842F08072E2602268D30708D5174917
:102870001748972201F09EF99721144801F06AFA4F
:102880000020144B83F82000E36843F48033E360B6
:10289000114B1A68120F12F00E0F0BD14C220F4978
:1028A0000B4801F087F90D484C2101F053FA6FF005
:1028B000150010BD40F2FF3218621A6314229A62AA
:1028C00017229A63F5E700BFF0ED00E04E4D0001DE
:1028D0006346000100ED00E0001000E0894D0001BA
:1028E0000E4B10B51A6B510714D50D4CA26AD201CC
:1028F00002D50C4801F05EF9A36ADB0108D50A494C
:102900000A48242201F056F92421074801F022FA4E
:10291000012002E0186BC0F3400010BD00ED00E0A4
:10292000001000E0C34D0001894D00016346000125
:10293000024B0B6001231360704700BF140100219C
:10294000004870473C44000110B501F024FC034CE2
:10295000206001F01DFC6060002010BD140100210A
:1029600070B50C46154601F013FC29460646204674
:1029700001F001FB08B3B4FBF6F306FB134323B9E4
:10298000B5FBF6F006FB105040B12B462246452120
:102990000C4801F0E7F96FF015000DE0AE420BD8DE
:1029A00001F0F6FB064604F18074204600F084FD39
:1029B000AD1B3444F9D1284670BD2B462246452133
:1029C0000148E6E7DC4D0001004E000170B50D4600
:1029D0001946284616461C4601F0CDFA40B184B18E
:1029E0002246304605F1807101F0B1FA002007E07F
:1029F000054823462A46452101F0B4F96FF0150039
:102A000070BD2046FCE700BF004E0001F8B50D4642
:102A10001946284617461C4601F0ADFA58B105F193
:102A2000807545EA040616F003060DD023462A46B3
:102A30004521104803E023462A4645210E4801F06F
:102A400091F96FF01500F8BD8CB13319032BA5EB8C
:102A5000060006D8094AD2F80034DB07FBD500206F
:102A6000F1E7BB1B196800F059FD043EEDE7204675
:102A7000E9E700BF224E0001004E000100000841BE
:102A8000524B2DE9F041D3F820320546B3F5006FE3
:102A90000C46174608D04E494E48202201F08AF8CD
:102AA00020214B4801F056F900224B49DFF830C194
:102AB0000B680CEB0310D0F808081E0110F0FF0F94
:102AC0000CD102B10B60414AD2F82002B5FBF0F103
:102AD00000FB115161B16FF0150007E00133072BC6
:102AE0004FF00102E5D96FF01B000B60BDE8F081EB
:102AF000D2F82002B4FBF0F100FB11410029EAD129
:102B0000D2F82012D2F824224A43A242E3D3002C66
:102B1000E1D0072B08D931492E48772201F04AF835
:102B200077212E4801F016F9284BD3F82012984649
:102B3000B5FBF1F201FB125242B128492548782237
:102B400001F038F87821254801F004F9D8F820225E
:102B5000D8F8243253439C4208D920491D48792291
:102B600001F028F879211D4801F0F4F8174BD3F84B
:102B70002022B4FBF2F302FB134343B1174915487B
:102B80007B2201F017F87B21144801F0E3F806F1ED
:102B9000824303F50023C3F80058C3F80448C3F880
:102BA0000878D3F800281E4695420CD1D3F8043893
:102BB0009C4208D1D6F80838DBB29F420CBF0020F7
:102BC0006FF00D0092E76FF00D008FE70000FF013E
:102BD0004F4E0001634600011C0100217B4E0001A5
:102BE000000008410348452108B501F0BBF800206A
:102BF000FFF7E0FDAD4E000138B504468169284875
:102C000000F0D8FF4FF0FF32264BC3F80823BFF384
:102C10006F8F72B624490023084603F12005013363
:102C2000102B41F82520F8D100234FF0FF3103F19C
:102C300060020133102B40F82210F8D1002203F17A
:102C4000E0231A60D3F8F42C03F54F6342F00072CE
:102C50005A605A6A22F4E0225A62EFF31482920711
:102C600005D5EFF3148222F0020282F31488BFF339
:102C70004F8FBFF36F8FA569012120469D6000F043
:102C8000F9F958B1002383F30B8883F30A882A6883
:102C900082F3088883F309886B68984738BD00BFC2
:102CA000CF4E00010050004100E100E01FB5044696
:102CB000074A01AB07CA83E807000C2219462046E1
:102CC00001F035F900280CBF2046002004B010BDEB
:102CD0009C43000170B505460024054E56F8040BD0
:102CE0002844FFF7E3FF10B90134052CF6D170BD7D
:102CF000444400012DE9F04F1C46D369804687B05B
:102D000010460E4615469346D2F80C901769D3F834
:102D100004A0FFF7CBFF48B924B10024204607B038
:102D2000BDE8F08F504800F045FFF7E7AB69434539
:102D300003D0002CF1D14D48F5E71CB9B34201D0C6
:102D40004B48F0E73046FFF7C5FF854203D0002C23
:102D5000E3D14848E7E7296A474B994205D0002C60
:102D6000DBD1464800F026FFD8E76B69019301F0FC
:102D7000EEF9019BC0F34F0083420BD2002CCCD163
:102D80006D6901F0E4F92946C0F34F023C4800F0B8
:102D900011FFC3E719EB0B0915D2BB1913D2B542CA
:102DA00011D39D420FD209F1FF394E450BD84B4547
:102DB00009D917EB080702D2EB69434507D2002C6B
:102DC000ABD13048AFE7002CA7D12F48ABE7BB42CF
:102DD000F5D2D0450FD857450DD92F69DFF8C490EB
:102DE000374407F1050A0DF10C08BA4507D1002C4C
:102DF00093D1264897E7002C8FD1254893E799E88F
:102E0000070088E807000C224146384601F08FF899
:102E100000B90FB90137E8E7FA68AB699A4204D004
:102E2000002C7FF47AAF1B487DE72D6901F022F971
:102E3000014620B1002C7FF470AF174892E7294675
:102E4000304607F1100201F01CF9014620B1002CB8
:102E50007FF463AF114885E7002C7FF45FAF104823
:102E600000F0A8FE012459E7E14E0001014F0001E6
:102E7000344F0001614F0001FFFF02918A4F0001B2
:102E8000B14F00011E500001F14F000177500001C9
:102E90004A500001A8500001DB500001FB50000126
:102EA00027510001A8430001024B1868BFF34F8F60
:102EB000704700BF00860001024B9868BFF34F8F38
:102EC000704700BF0086000170B5FFF7F5FF1423BF
:102ED000434311491944084601F0FDF8012802D086
:102EE0000024204670BD0029FAD000260C1D0231B6
:102EF000084601F0F0F88642F2D2A01C01F0EBF88F
:102F00000546204601F0E7F80128EAD0023504EB37
:102F100045040136ECE700BF0C8600014FF000537A
:102F2000014A1A60704700BF15FCBA254FF00053E4
:102F30001868054B984205D0044B984214BF0220F4
:102F40000120704700207047B6B3B4B55DCE03F1E1
:102F500030B54FF00055184B2A6801469A42ADF53E
:102F60000F7D26D10023CDE90133EB680EAA009333
:102F700005A84FF40073FEF7F9FD044640B1452162
:102F800002460E4800F0EEFE20460DF50F7D30BDE6
:102F90000123D5E9011205A800F0F7FE044618B197
:102FA000024645210648EDE74921064800F0DAFED1
:102FB000EAE76FF00D04E7E7B6B3B4B5415100019D
:102FC000635100018D5100014FF00053014A1A6016
:102FD000704700BF5DCE03F12DE9F0430025214C81
:102FE000214E54F8048CDFF8889085B0A84503D8AA
:102FF000002005B0BDE8F083636A96E807001F680B
:1030000001AB83E807000C221946384600F08FFF19
:1030100090B98FB1636A21691B681A6991420BD11B
:103020009A69A169914207D8E169914204D962691C
:103030005B6932EA03030AD0276A67B10B4800F0E4
:10304000B9FD404080F311884FF0040002DFE368CF
:1030500001351C44CAE7484600F0ACFD636A1F60B6
:10306000F5E700BF3C020001B4430001A451000198
:10307000CD5100012DE9F04F0F46064689B018B931
:10308000002009B0BDE8F08F0023426B00F13C0442
:10309000934206D14FF00009B36B4B4505D8012090
:1030A000EFE7E16801330C44F2E74FF0000A2B4BE5
:1030B0000093009B4FF0000B1A4652F8043B0DF1B1
:1030C00014080193264B009253F8045BCDE90233B8
:1030D000019B1D44234B93E8070088E807000C225E
:1030E0004146284600F023FF029B00B9ADB90BF121
:1030F000010BBBF1050FE7D11B4B0AF1010A9A4501
:10310000D7D31FB10023626A136013BB236A03B3D2
:10311000B6E7DA680130134408E02B6A134A934299
:10312000EAD1AE42E8D0696B05F13C038842E3D0B6
:1031300025691A699542ECD19A69A5699542E8D842
:10314000E5699542E5D962695D69AA43E1D1002F3D
:10315000D9D1E36809F101091C449DE7A853000196
:1031600058440001C043000101000000FFFF02912C
:103170000022D30003F1FF7303F58033D3F800136B
:10318000013107D0D3F800130132D3F80433202AD9
:103190000B60EED1134B1B68072B1AD1124B1B6827
:1031A000023B032B0CD8114AD35C4BB1104BD3F824
:1031B0000024D10742BF0022C3F81421C3F818210C
:1031C0000B4BD3F80024D20744BF6FF00102C3F8C1
:1031D0000024084B1A68084BC3F84425074B084ADB
:1031E0001A6070473001FF013401FF0100520001F5
:1031F000005000410080FF010060004104000021F8
:103200000090D00308B570B1012818D04FF44F7268
:103210001049114800F0CEFC0E484FF44F7100F0F9
:1032200099FD00200AE00D4A21B1D2F8183403F0CC
:1032300003030B70D2F81804C0F3004008BD074A1E
:1032400021B1D2F80C3403F001030B70D2F80C0456
:10325000F2E700BF04520001634600010050004144
:1032600010B5044640B909490948B52200F0A2FC4E
:10327000B521064800F06EFD064B1A7922B90122ED
:1032800005481C601A7110BD0448FCE73852000163
:1032900063460001200100210000AD0B0C00AD0BC6
:1032A00008B50C4B1B7943B90B490C48CE2200F0F2
:1032B00081FCCE21084800F04DFD0520FEF79CFF63
:1032C00010B90520FEF788FF0122054BC3F814252D
:1032D00008BD00BF200100213852000163460001F3
:1032E00000500041214B13B51B79044653B92049C6
:1032F00020484FF4857200F05DFC4FF485711C4846
:1033000000F028FD6CB1012C26D04FF49E721849B4
:10331000184800F04FFC4FF49E71154800F01AFD5C
:1033200016E020460DF10701FFF76CFF124B88B144
:103330009DF80720022A0DD1C3F8182500220F4B53
:103340001A6002221B680C4BC3F8042301229A6006
:1033500002B010BD0122EFE70022094B1A601B6882
:10336000054BC3F804431C60F2E700BF20010021B5
:1033700038520001634600010050004104510041F1
:10338000005100412C4B13B51B79044653B92B490E
:103390002B4840F2431200F00DFC40F24311274845
:1033A00000F0D8FC74B1012C26D02449244840F206
:1033B0005F1200F0FFFB40F25F11204800F0CAFCF2
:1033C00002B010BD02221F4BC3F808230122C3F82C
:1033D000044142F2107403F582731B681A4B1A60A1
:1033E00000210846FFF70EFF0028E9D0012000F079
:1033F000B6FE013CF4D1E3E70022124BC3F80843C8
:10340000C3F8002103F580731B68104B1C608DF816
:10341000074042F2107401200DF10701FFF7F2FEA0
:103420000028CDD09DF807000128C9D100F097FEF3
:10343000013CF0D1C4E700BF200100213852000157
:1034400063460001005000410C500041045000410F
:10345000154B07B51A684AB10020012218601B6895
:10346000124BC3F80823124B1B689847114B1A687C
:103470007AB100200DF1070118601B68FFF7C2FE4A
:103480009DF8071002220129084B05D1C3F8182521
:10349000996003B05DF804FBC3F80823044B0120D6
:1034A0001B689847F5E700BF0051004100500041FC
:1034B000200100210451004100F17F43B3F5802F2A
:1034C00010B504460AD3104910484FF4837200F037
:1034D00071FB4FF483710C4800F03CFCC4F30A0309
:1034E0007BB902220A4BC3F804254FF0FF32226059
:1034F000D3F80024D207FBD500220648C3F80425E0
:1035000010BD0548FCE700BF75520001634600018D
:10351000000008410000AD0B0A00AD0B38B50D46A8
:103520000121044600F01DFE50B9134913484FF421
:10353000CA7200F03FFB4FF4CA710F4800F00AFC5A
:10354000A1070AD00C490D4840F2951200F032FB59
:1035500040F29511084800F0FDFB0122084BC3F82A
:103560000425D3F80024D207FBD52560BFF35F8F75
:103570000022C3F8042538BD7552000163460001DE
:10358000000008410E4B70B553F82040013053F84D
:103590002060A64200D870BDD4E90035284698477F
:1035A00065B1EB6830B10028B8BF4042FF28A8BF22
:1035B000FF2018705A7842F001025A700834E8E788
:1035C0006C44000170B5054610B90024204670BD5A
:1035D0000378002BF9D00F4A0F4C1646944208D1BD
:1035E0000D4CB442F1D0204600F0D8FD50B918344B
:1035F000F7E7204600F0D2FD10B12368AB42E5D0DA
:103600001834EBE72846216800F085FC0028EED14D
:10361000DCE700BF4C4200010442000173B50446E0
:103620000D464FF02003EFF3118683F31188BFF3AB
:103630006F8F0022042896BF164B174B53F820308B
:10364000009245210246154800F08CFB3DB1EB6924
:10365000C3F308031BB14521114800F083FB00228E
:103660004521104B104800F07DFB29462046FFF70E
:10367000B9FA042C08D10D490D488F2200F09AFAAE
:103680008F210A4800F066FB86F31188BFF36F8F25
:1036900002B070BD80440001B1520001BF52000170
:1036A000EC520001125300011A530001375300017C
:1036B000634600010248034A0021121A00F052BC7E
:1036C0001000002130010021012208B5084B022022
:1036D0001A70FFF757FF00F075FD0320FFF752FF48
:1036E000FDF706FB034A137B23F00103137308BDA8
:1036F0002C0100211000002108B5154B03F50062D4
:1037000082F3088883F30A880025E023114C84F8AB
:103710002230E57725766576A576636A43F4E02363
:103720006362FFF739F8FEF7B9FD4FF0FF33A3628C
:10373000E36200F032FD2846FFF724FF0120FFF787
:1037400021FF2B462A4629460348FEF789FD00BF84
:103750003005002100ED00E0C936000108B506483B
:10376000064A0749121A00F0F2FBBDE80840054A74
:103770000549064800F0EBBB0000002110000021C5
:10378000AC53000100000000AC5300010000002118
:10379000034B1B680BB900F09DBB0020704700BFB6
:1037A0002801002130B5036868B10A4A5268904286
:1037B00009D043B1D3E90421D0E90445121945EBFE
:1037C0000101C3E90421426813605A600023C0E983
:1037D000003330BD0800002138B5104B1C689C42F6
:1037E00008BF0024FFF7D4FF05468CB1D4E90401DB
:1037F000401B61EBE571012871F100030BDB6FF0F9
:1038000000420023824273EB010400DA104638BD07
:103810006FF00040FBE70020F9E700BF080000213F
:103820002DE9F74F4FF02003EFF3118483F3118854
:10383000BFF36F8FDFF8ACA0294D5146DFF8A8B079
:103840002860D5F800C0DBF800006246DAE900899C
:10385000D3175845CDE900230DD060B1D0E90467F6
:10386000B445BB411DDA009BB6EB030C019B67EB33
:103870000306C0E904C60026009B2E6013EB080275
:10388000019B43EB0903C1E90023FFF7A5FF314684
:1038900000F01FFB84F31188BFF36F8F03B0BDE806
:1038A000F08F0022002318EB060849EBE679C0E907
:1038B0000423ACEB0606CAE900892E60FFF772FF0D
:1038C00084F31188BFF36F8F836898474FF020030C
:1038D000EFF3118483F31188BFF36F8F0149B0E7D1
:1038E0002801002188000021080000212DE9F04F67
:1038F0003F2A9BB0019240F2AD800C460546A2F1F2
:10390000400020F03F0040302018D5E902BA009076
:10391000D5E906C35846D5E90012D5E9049E9B4671
:10392000DFF84481236867681BBAA6680291039296
:10393000E16822690490CDF814A06069D4F818A059
:10394000CDF81890CDF81CE0D4F81C90D4F820E005
:10395000CDF820C0CDF824B0D4F824C0D4F828B0D5
:103960000A93E36A9EFA8EFE3FBA36BA09BA12BAD1
:1039700000BA9AFA8AFA99FA89F99CFA8CFC9BFAAD
:103980008BFB1BBACDE912ECCDE90C61CDE90E2021
:10399000CDE910A9CDE914B30B97D4F830C0676B0B
:1039A000A66BE36B9CFA8CFC1BBA02AA0AA94046E0
:1039B0003FBA36BACDE916C7CDE91863FCF7EEFD7C
:1039C0000AA8FCF711FF02AA0AA92448FCF7E6FDA1
:1039D0000AA8FCF709FF02AA0AA92148FCF7DEFDA4
:1039E0000AA8FCF701FF1F4802AA0AA9FCF7D6FDA6
:1039F0006A68039B2E681A44EB68A8689C46059B7E
:103A0000049F0CEB030A2B6902999C46069B3144E8
:103A10000CEB03096E69079B3844AF6906EB030E94
:103A2000DDE9086307EB060CEE69403406EB030B97
:103A3000009BC5E900129C42C5E9020AC5E9049E43
:103A4000C5E906CB7FF46EAF019B03F03F001BB0CE
:103A5000BDE8F08F10461BB0BDE8F08FD4440001E4
:103A6000144500015445000194440001F0B504469A
:103A70000B688F68CE6899B01BBA0D6948698A696E
:103A800008933FBACB6936BA0A970B966768A6685F
:103A9000D1F804C02DBA00BA12BA1BBA0C950D9019
:103AA000E56820690E920F936269A36901970296F7
:103AB000E76926689CFA8CFCCDE90350CDE9052323
:103AC000CDF824C0079700960B6ACF6A086B8A6B03
:103AD0001BBA2D4DD1F824E0D1F828C04E6B1093BD
:103AE000CB6B3FBA11BA00BA9EFA8EFE9CFA8CFCE0
:103AF0001BBA6A46CDE913701691284608A936BA52
:103B00001793CDE911EC1596FCF748FD08A8FCF7D2
:103B10006BFE6A4608A905F14000FCF73FFD08A8C6
:103B2000FCF762FE6A4608A905F18000FCF736FD45
:103B300008A8FCF759FE6A4608A905F1C000FCF781
:103B40002DFDD4E902656068019927684318009A41
:103B50000299206917440E44039A049915440844B5
:103B60006269059927601144C4E904010020A7692E
:103B7000069A63603A44E369079FC4E902653B44DF
:103B8000C4E9062319B0F0BD944400017047034610
:103B900058B1426802F00302012A03D0032A04D17B
:103BA000026812B10020986070476FF015007047EE
:103BB000002070470FB407B504A951F8040B019118
:103BC000FDF72CF903B05DF804EB04B07047038BEC
:103BD00013F0070305D10368002B0CBF002003205E
:103BE0007047022B05D1438B002B14BF002004200B
:103BF0007047012B05D10368002B0CBF0020052066
:103C00007047002070472DE9F0410D4607461946E0
:103C1000281D90461E46FDF7DBF8044638B13346B2
:103C2000424629463846A446BDE8F0416047BDE813
:103C3000F08110B44FF02004EFF3118284F3118867
:103C4000BFF36F8F416110BC0121FDF7F5B810B5CE
:103C50000C4640B139B1081DFFF799FF28B9A36898
:103C600033F0030301D06FF0150010BD38B50C46DA
:103C7000054658B151B10B6843B14B6833B11C22B2
:103C8000002100F06FF900202C6138BD6FF01500A5
:103C9000FBE72DE9F74F9946D37814466F2BA3F134
:103CA000410206460F4601922DD028D8582B14BF4A
:103CB0000A251025AA464FF0000BDDF83080524649
:103CC0005B4630463946FCF7BBFA092AD3B21FD807
:103CD00030335F45DBB208BF564508F8013D01D3DC
:103CE000C84512D823789B0605D5082D16D1A37890
:103CF00043F00803A370404603B0BDE8F08F03F023
:103D0000F703702BD3E70825D4E706460F46D6E71E
:103D1000019A192A94BF37335733DAE7102DEAD1C5
:103D2000A37843F01003E5E72DE9F0410746884604
:103D300015461E461446B442A4EB050002D33EB914
:103D400023782BB1414614F8010BB8470028F2DA6A
:103D5000BDE8F081404080F311884FF0040002DF9D
:103D6000704770470FB407B504A951F8040B0191CF
:103D7000FDF754F803B05DF804EB04B0704708B5E4
:103D800083681B699847006808BD2DE9F04789469C
:103D900016469846044698B38268036913448269BC
:103DA0003344934230D80025D4E90170A6EB050ACC
:103DB0003F1ABA4515D2B54209D223685246184473
:103DC00009EB050100F0C3F8A3685344A360B8F100
:103DD000000F1CD0A068A8B12046BDE8F047FDF751
:103DE0003DBE23683A46184409EB050100F0AFF8E0
:103DF00063682046A360FDF731FE18B93D44D3E760
:103E00006FF00D00BDE8F0876FF00B00FAE7404659
:103E1000F8E710B54FF02003EFF3118283F3118818
:103E2000BFF36F8F036803F00704012C06D1016014
:103E3000002082F31188BFF36F8F10BD03F0C00321
:103E40008B4214BF4FF0FF306FF07700F1E74FF077
:103E50002003EFF3118283F31188BFF36F8F0368A0
:103E600003F0C00343F00203036082F31188BFF341
:103E70006F8F70476FF08500704710B41C24006985
:103E8000CBB203FB0400002110BC10470020FFF759
:103E900029BA0020FFF776BA8022FDF7FFBE2DE990
:103EA000F0410C24C9B24C430569064604F14000B8
:103EB0008021284490461F46FFF7ABFF002806DB11
:103EC0002544C5E90E8773681B5998470020BDE853
:103ED000F08170470020704700210120FEF7EEB905
:103EE00001460068FEF7EAB908B5FEF715FABDE825
:103EF0000840FEF75DBC034600201A5C02B970471B
:103F00000130FAE7034600201A5C0AB1884200D16A
:103F100070470130F8E7431E013913F8012F11F8FB
:103F2000010F824201D1002AF7D1101A704710B553
:103F30005AB10139841810F8012B11F8013FA04241
:103F400001D09A42F7D0D01A10BD1046FCE710B548
:103F5000431E0A44914200D110BD11F8014B03F8F1
:103F6000014FF7E70346C9B20244934200D17047BC
:103F700003F8011BF9E738B504460D4600F005F9D2
:103F8000844209D2002C07DBA84205D32C4484428A
:103F90008CBF0020012038BD0020FCE72DE9F7434D
:103FA0001C46002583680E46174669465B692560F6
:103FB000A56001AA9847DDE9001C284601F1040E1E
:103FC000604504D16FF0150003B0BDE8F0835EF8E2
:103FD0003050A268D4F8009065607EB9BB1A51F8E1
:103FE00030800130434528BF434603FB05951A4402
:103FF00098452560A260E3D90020E5E7A6EB090318
:10400000B3FBF5F3EBE713460022FFF7C7BF2DE93B
:10401000F0470024836886B0884691465B6902AA0F
:1040200001A99847A2462546029BAB4202D806B09A
:10403000BDE8F0870026019F07EBC5077B68049366
:104040003A680AEB0603B24202D89A460135EBE71A
:10405000494603A803940593C0470028E7D0049B72
:1040600001361C44ECE70222FEF70ABD002070472F
:104070000020704708B5FFF7F9FF08B9FFF7F8FF10
:1040800008BD30B589B0154601230A460146684689
:1040900000F00EF8044640B9202269462846FCF795
:1040A0004DFA002808BF6FF06404204609B030BD07
:1040B00008B5FCF7A1FC002008BD70B50546084610
:1040C0000C46FEF707FE2146024601232846BDE8BE
:1040D0007040FEF70FBE20F003031B68BFF34F8F45
:1040E000820714BF180C98B2704708B5FEF7ECFEB3
:1040F00008B9002008BD0230FFF7EDFF4FF6FF734F
:104100009842F7D1F5E72DE9F0410546FEF7DCFED0
:104110000446FFF7EAFF211D002407462646A74272
:1041200007D84FF000080DB1C5F800803046BDE853
:10413000F08108468846FFF7CEFFC3439BB20231A9
:10414000002BF0D09E4238BF1E460134E7E7002026
:10415000FFF7D9BF4FF0005358687047004700F091
:104160002DB8034603F17F42B2F5802F08460AD3EB
:1041700051B103F17E4000F50040B0F5607F2CBFE7
:10418000002001207047012070474FF480207047C5
:104190004FF40060704780207047704738B1C368A3
:1041A0001888C0F30800A0F5807358425841704742
:1041B000EFF30580003818BF0120704708B1FDF704
:1041C000F3BB704770470000FEF7D2BFA4C0FF7F6B
:1041D0000100000081190001000000005D280001BD
:1041E00000000000451D00010442000149210001BA
:1041F0001C4200014929000134420001D92F00016D
:10420000000000004248000100440001EC430001AE
:1042100090000021A4000021824300019448000185
:104220000000000000000000FC0000210000000071
:104230007C4300019445000100000000244400017B
:104240001001002100000000744300010000000084
:10425000D93E000100000000D93E0001000000002E
:10426000D93E000100000000D93E0001000000001E
:10427000D93E0001513400015D4100010000000001
:10428000D93E000100000000D93E000100000000FE
:10429000D93E000100000000D93E000100000000EE
:1042A000D93E000100000000D93E000100000000DE
:1042B000D93E000100000000D93E000100000000CE
:1042C000D93E000100000000D93E000100000000BE
:1042D000D93E000100000000D93E000100000000AE
:1042E000D93E000100000000D93E0001000000009E
:1042F000D93E000100000000D93E0001000000008E
:10430000E920000100000000D93E0001000000008B
:10431000D93E000100000000D93E0001000000006D
:10432000D93E000100000000D93E0001000000005D
:10433000D93E000100000000D93E0001F84700010D
:10434000030000005448000103000000C34E0001B8
:1043500003000000454E000103000000A3530001CC
:1043600003000000A051000103000000A34600016B
:1043700003000000FF7FFF7FFF7FFF7FFF7FFF7F46
:10438000FF7FFF7FFF7FFF7FFF7FFF7FFFFFFFFF3D
:10439000DEE61E284CBBCE8F02350000DEE61E286E
:1043A0004CBBCE8F02350000DEE61E28838451868A
:1043B00002350100DEE61E28EAAC45B802350000F1
:1043C000DEE61E284CBBCE8F023500000000000048
:1043D0000338FDD870470000000000000002000014
:1043E000000400000008000000100000753E0001FD
:1043F000993E00019F3E000100000000691C000181
:10440000311E0001951E0001484800018D3E00014B
:10441000933E00014E480001151C0001151D0001CE
:1044200000000000CD2900010D2A000161290001D2
:1044300000000000412900013129000104000000B2
:10444000FF00000000000000000200000004000067
:104450000008000000100000000000000002000042
:10446000000400000008000000100000D44100011A
:10447000EC410001F441000104420001044200014A
:1044800059530001675300017B5300018A53000117
:1044900096530001982F8A4291443771CFFBC0B5E3
:1044A000A5DBB5E95BC25639F111F159A4823F92FF
:1044B000D55E1CAB98AA07D8015B8312BE85312458
:1044C000C37D0C55745DBE72FEB1DE80A706DC9B19
:1044D00074F19BC1C1699BE48647BEEFC69DC10FC5
:1044E000CCA10C246F2CE92DAA84744ADCA9B05C01
:1044F000DA88F97652513E986DC631A8C82703B0C4
:10450000C77F59BFF30BE0C64791A7D55163CA06D1
:1045100067292914850AB72738211B2EFC6D2C4DDD
:10452000130D385354730A65BB0A6A762EC9C281CB
:10453000852C7292A1E8BFA24B661AA8708B4BC261
:10454000A3516CC719E892D1240699D685350EF48B
:1045500070A06A1016C1A419086C371E4C77482742
:10456000B5BCB034B30C1C394AAAD84E4FCA9C5BB8
:10457000F36F2E68EE828F746F63A5781478C88409
:104580000802C78CFAFFBE90EB6C50A4F7A3F9BEEB
:10459000F27871C64E52465F464C4153485F4452D2
:1045A000565F4E414D45004661696C656420746FED
:1045B0002070726F746563742062306E20666C6167
:1045C00073682C2063616E63656C20737461727410
:1045D00075700A0D00556E61626C6520746F2066FF
:1045E000696E642076616C6964206669726D7761BA
:1045F000726520696E736964652025700A0D004636
:1046000061696C656420746F207472616E73666595
:104610007220696D6167653A2025640A0D00466164
:10462000696C656420746F2070726F7465637420A8
:1046300061707020666C6173683A2025640A0D0011
:10464000574553545F544F504449522F7A65706810
:1046500079722F6C69622F6F732F6E6F7469667930
:104660002E6300415353455254494F4E2046414911
:104670004C20402025733A25640A00574553545F67
:10468000544F504449522F7A65706879722F6C6983
:10469000622F6F732F6F6E6F66662E6300286E69D0
:1046A0006C2900736F630025633A20427566666566
:1046B000722073697A652069732062696767657221
:1046C000207468616E20706167650A0025633A2076
:1046D0004572726F72202564207768696C65206767
:1046E000657474696E67207061676520696E666FB6
:1046F0000A0025633A204572726F72202564207784
:1047000068696C652065726173696E6720706167A6
:10471000650A0025633A2073747265616D5F666C8B
:104720006173685F65726173655F7061676520655D
:104730007272202564206F66667365743D3078253B
:1047400030387A780A0025633A20666C6173685FB6
:104750007772697465206572726F72202564206FAC
:1047600066667365743D30782530387A780A00259E
:10477000633A20666C6173682072656164206661CB
:10478000696C65643A2025640A0025633A206361F8
:104790006C6C6261636B206661696C65643A2025AC
:1047A000640A0025633A2042756666657220736963
:1047B0007A65206973206E6F7420616C69676E651D
:1047C0006420746F206D696E696D616C2077726909
:1047D00074652D626C6F636B2D73697A650A0025B1
:1047E000633A20496E636F72726563742070617200
:1047F000616D657465720A0053545245414D5F46C0
:104800004C41534800574553545F544F504449520C
:104810002F7A65706879722F647269766572732F6A
:10482000636C6F636B5F636F6E74726F6C2F636C1E
:104830006F636B5F636F6E74726F6C5F6E72662E08
:104840006300434C4F434B006866636C6B006C66BF
:10485000636C6B00636C6F636B5F636F6E74726F1E
:104860006C00574553545F544F504449522F7A655A
:10487000706879722F647269766572732F74696DCE
:1048800065722F7379735F636C6F636B5F696E69B9
:10489000742E63007379735F636C6F636B005745AD
:1048A00053545F544F504449522F7A65706879725F
:1048B0002F617263682F61726D2F636F72652F6154
:1048C0006172636833322F6972715F6D616E616707
:1048D000652E630025633A2072302F61313A202023
:1048E000307825303878202072312F61323A2020FC
:1048F000307825303878202072322F61333A2020EA
:104900003078253038780A0025633A2072332F61D9
:10491000343A2020307825303878207231322F69AF
:10492000703A2020307825303878207231342F6C5E
:10493000723A20203078253038780A0025633A20F2
:1049400020787073723A20203078253038780A0049
:1049500025633A204661756C74696E6720696E73D1
:104960007472756374696F6E2061646472657373C9
:1049700020287231352F7063293A2030782530385D
:10498000780A0025633A202A2A2A2A2A204D5055DF
:10499000204641554C54202A2A2A2A2A0A002563F7
:1049A0003A202020537461636B696E6720657272D0
:1049B0006F722028636F6E74657874206172656110
:1049C000206D69676874206265206E6F742076615F
:1049D0006C6964290A0025633A202020556E73749F
:1049E00061636B696E67206572726F720A0025637E
:1049F0003A20202044617461204163636573732011
:104A000056696F6C6174696F6E0A0025633A2020E5
:104A1000204D4D46415220416464726573733A20C3
:104A2000307825780A0025633A202020496E737477
:104A300072756374696F6E2041636365737320568A
:104A4000696F6C6174696F6E0A00574553545F5407
:104A50004F504449522F7A65706879722F617263A2
:104A6000682F61726D2F636F72652F616172636869
:104A700033322F636F727465785F6D2F6661756C6A
:104A8000742E630025633A202A2A2A2A2A204255B6
:104A900053204641554C54202A2A2A2A2A0A002506
:104AA000633A202020537461636B696E67206572DE
:104AB000726F720A0025633A202020507265636984
:104AC0007365206461746120627573206572726F12
:104AD000720A0025633A2020204246415220416458
:104AE00064726573733A20307825780A0025633A3A
:104AF000202020496D70726563697365206461745C
:104B00006120627573206572726F720A0025633AC4
:104B1000202020496E737472756374696F6E206211
:104B20007573206572726F720A0025633A202A2A13
:104B30002A2A2A205553414745204641554C5420A6
:104B40002A2A2A2A2A0A0025633A20202044697644
:104B50006973696F6E206279207A65726F0A002529
:104B6000633A202020556E616C69676E6564206D24
:104B7000656D6F7279206163636573730A002563E5
:104B80003A202020537461636B206F766572666CE7
:104B90006F772028636F6E74657874206172656129
:104BA000206E6F742076616C6964290A0025633A6F
:104BB0002020204E6F20636F70726F636573736F78
:104BC0007220696E737472756374696F6E730A0014
:104BD00025633A202020496C6C6567616C206C6FFE
:104BE0006164206F66204558435F52455455524ECC
:104BF00020696E746F2050430A0025633A202020FC
:104C0000496C6C6567616C20757365206F662074F4
:104C1000686520455053520A0025633A2020204100
:104C20007474656D707420746F2065786563757435
:104C30006520756E646566696E656420696E73745F
:104C400072756374696F6E0A00526573657276657A
:104C50006420457863657074696F6E202800537016
:104C60007572696F757320696E7465727275707490
:104C70002028495251200025633A20535053454C77
:104C800020696E20746872656164206D6F646520B0
:104C9000646F6573206E6F7420696E6469636174FC
:104CA00065205053500A0025633A202A2A2A2A2ACE
:104CB0002048415244204641554C54202A2A2A2A51
:104CC0002A0A0025633A2020204275732066617508
:104CD0006C74206F6E20766563746F7220746162ED
:104CE0006C6520726561640A0025633A20202046C5
:104CF00061756C7420657363616C6174696F6E209B
:104D0000287365652062656C6F77290A0025633A10
:104D1000202A2A2A2A2A204465627567206D6F6E30
:104D200069746F7220657863657074696F6E202A8C
:104D30002A2A2A2A0A0025633A202A2A2A2A2A20ED
:104D4000257320256429202A2A2A2A2A0A00574561
:104D500053545F544F504449522F7A6570687972AA
:104D60002F617263682F61726D2F696E636C756459
:104D7000652F616172636833322F636F7274657877
:104D80005F6D2F6477742E6800574553545F544FFE
:104D9000504449522F7A65706879722F6172636846
:104DA0002F61726D2F636F72652F6161726368335B
:104DB000322F636F727465785F6D2F6465627567FB
:104DC0002E63004E756C6C2D706F696E7465722069
:104DD000657863657074696F6E3F0A0025633A20D9
:104DE000756E616C69676E65642061646472657379
:104DF000733A2030782530386C783A257A750A0075
:104E000025633A20696E76616C696420616464721E
:104E10006573733A2030782530386C783A257A7586
:104E20000A0025633A206E6F7420776F72642D61DB
:104E30006C69676E65643A2030782530386C783A52
:104E4000257A750A00666C6173685F6E726600573A
:104E50004553545F544F504449522F6E72662F6C25
:104E600069622F6670726F746563742F6670726FFB
:104E7000746563745F61636C2E6300574553545FC0
:104E8000544F504449522F6D6F64756C65732F6891
:104E9000616C2F6E6F726469632F6E7266782F6813
:104EA000616C2F6E72665F61636C2E680025633AD9
:104EB00020526573657474696E67207379737465C5
:104EC0006D0A00666174616C5F6572726F72004298
:104ED0006F6F74696E67202830782578292E0D0A47
:104EE00000496E76616C6964206669726D776172E3
:104EF0006520696E666F20666F726D61742E0A0D93
:104F000000546865206669726D7761726520646F10
:104F100065736E27742062656C6F6E672061742004
:104F200064657374696E6174696F6E206164647224
:104F30002E0A0D0073726320616E64206473742006
:104F40006D75737420626520657175616C20666F84
:104F500072206C6F63616C2063616C6C732E0A0D40
:104F6000004669726D7761726520696E666F2064B4
:104F70006F65736E277420706F696E7420746F2074
:104F8000697473656C662E0A0D00466972776D61EF
:104F9000726520686173206265656E20696E766156
:104FA0006C6964617465643A20307825782E0A0D46
:104FB000004669726D776172652076657273696FFC
:104FC0006E202825752920697320736D616C6C65CE
:104FD00072207468616E206D6F6E6F746F6E69639E
:104FE00020636F756E74657220282575292E0A0D51
:104FF000004669726D7761726520696E666F20691F
:1050000073206E6F742077697468696E20736967A6
:105010006E656420726567696F6E2E0A0D00426FBF
:105020006F742061646472657373206973206E6F9E
:10503000742077697468696E207369676E6564208F
:10504000726567696F6E2E0A0D0052657365742074
:1050500068616E646C6572206973206E6F7420776E
:10506000697468696E207369676E6564207265672C
:10507000696F6E2E0A0D00436F756C64206E6F743D
:105080002066696E642076616C6964206669726D61
:10509000776172652076616C69646174696F6E20F6
:1050A000696E666F2E0A0D0056616C6964617469E1
:1050B0006F6E20696E666F20646F65736E27742053
:1050C00062656C6F6E6720746F2074686973206608
:1050D00069726D776172652E0A0D00626C5F637292
:1050E0007970746F5F696E697428292072657475B0
:1050F000726E65642025642E0A0D004669726D7714
:105100006172652076616C69646174696F6E206696
:1051100061696C65642077697468206572726F726A
:105120002025642E0A0D004669726D776172652034
:10513000686173682076657269666965642E0A0D18
:105140000025633A2073747265616D5F666C6173EC
:10515000685F696E6974206661696C65643A2025D0
:10516000640A0025633A2073747265616D5F666C32
:105170006173685F62756666657265645F777269A0
:105180007465206661696C3A2025640A0025633ADB
:10519000205472616E7366657220646F6E650A00DA
:1051A000706364004552524F523A2043616E6E6FF5
:1051B000742066756C66696C6C204558545F41506C
:1051C0004920726571756573742E0D0A005741523E
:1051D0004E494E473A204F7074696F6E616C20459E
:1051E00058545F4150492072657175657374206E23
:1051F0006F742066756C66696C6C65642E0D0A00B0
:1052000001000000574553545F544F504449522FFA
:105210006D6F64756C65732F68616C2F6E6F72644F
:1052200069632F6E7266782F68616C2F6E72665F8D
:10523000636C6F636B2E6800574553545F544F5037
:105240004449522F6D6F64756C65732F68616C2FC4
:105250006E6F726469632F6E7266782F64726976FE
:105260006572732F7372632F6E7266785F636C6FF3
:10527000636B2E6300574553545F544F504449525B
:105280002F6D6F64756C65732F68616C2F6E6F7214
:105290006469632F6E7266782F64726976657273C3
:1052A0002F7372632F6E7266785F6E766D632E63F6
:1052B00000556E6B6E6F776E206572726F7200258F
:1052C000633A203E3E3E205A4550485952204641BE
:1052D00054414C204552524F522025643A202573A8
:1052E000206F6E204350552025640A0025633A2024
:1052F0004661756C7420647572696E6720696E749E
:105300006572727570742068616E646C696E670A8C
:105310000A00756E6B6E6F776E0025633A204375D9
:105320007272656E74207468726561643A202570CB
:1053300020282573290A00574553545F544F504481
:1053400049522F7A65706879722F6B65726E656C41
:105350002F666174616C2E6300435055206578633D
:10536000657074696F6E00556E68616E646C65641B
:1053700020696E7465727275707400537461636B2A
:10538000206F766572666C6F77004B65726E656C28
:10539000206F6F7073004B65726E656C2070616E6C
:1053A0006963006F7300000000000001B13B000161
:0C53B0000090D00308000021080000213C
:10860000008800010088000103000000FFFFFFFF59
:10861000095BA620E4874FD895D34290F812C58B0A
:10862000FFFFFFFF3E9319A8EE29C28C39BCDCB9CD
:10863000C76C7586FFFFFFFF4EA4118C7B22C79885
:10864000B4552AF1B5F509F9010001000100F00067
:10880000308F0021C1A0020125FB020195A00201C9
:1088100095A0020195A0020195A0020100000000B0
:10882000000000000000000000000000119E020196
:1088300095A0020100000000B99D020195A002016F
:10884000919E0201919E0201919E0201919E020160
:10885000919E0201919E0201919E0201919E020150
:10886000A1FF0201919E0201919E0201919E0201CF
:1088700071FF0201919E0201919E0201919E0201EF
:10888000919E02018BFF0201919E0201919E0201C5
:10889000919E0201919E0201919E0201919E020110
:1088A000919E0201919E0201919E0201919E020100
:1088B000919E0201919E0201000000000000000054
:1088C00000000000000000000000000000000000A8
:1088D0000000000000000000000000000000000098
:1088E0000000000000000000000000000000000088
:1088F0000000000000000000000000000000000078
:108900000000000000000000000000000000000067
:108910000000000000000000000000000000000057
:108920000000000000000000000000000000000047
:108930000000000000000000000000000000000037
:108940000000000000000000000000000000000027
:108950000000000000000000000000000000000017
:108960000000000000000000000000000000000007
:1089700000000000000000000000000000000000F7
:1089800000000000000000000000000000000000E7
:1089900000000000000000000000000000000000D7
:1089A00000000000000000000000000000000000C7
:1089B00000000000000000000000000000000000B7
:1089C00000000000000000000000000000000000A7
:1089D0000000000000000000000000000000000097
:1089E0000000000000000000000000000000000087
:1089F0000000000000000000000000000000000077
:108A0000DEE61E284CBBCE8F023500003C00000085
:108A10005499020001000000008800010088000154
:108A2000FFFF0291000000000000000000000000B5
:108A300000000000000000000000000053B94AB927
:108A4000002908BF00281CBF4FF0FF314FF0FF3056
:108A500000F070B9ADF1080C6DE904CE00F006F835
:108A6000DDF804E0DDE9022304B070472DE9F047AA
:108A7000089E0D4604468A46002B7FD18A4217463F
:108A800041D9B2FA82F24AB1C2F1200105FA02F3E9
:108A90009740944020FA01F141EA030A4FEA17484F
:108AA0004FEA144C1FFA87F9BAFBF8FE08FB1EA325
:108AB0000EFB09F14CEA0343994206D9FB1802D296
:108AC000994200F224810EF1FF3E591AA3B2B1FB84
:108AD000F8F008FB101100FB09F943EA0144A14535
:108AE00005D93C1902D2A14500F20E810138A4EB50
:108AF000090440EA0E4000211EB1D4400023C6E91B
:108B00000043BDE8F08702B9FFDEB2FA82F2002A24
:108B10004FD1CB1B4FEA174E1FFA87F80121250CC6
:108B2000B3FBFEFC0EFB1C302B4608FB0CF945EAA0
:108B30000045A9450AD97D192CBF01230023A94569
:108B400002D9002B00F0D9800CF1FF3CA5EB090500
:108B5000A3B2B5FBFEF00EFB105508FB00F843EA8C
:108B60000544A04505D93C1902D2A04500F2C980B0
:108B70000138A4EB080440EA0C40BDE78B4208D959
:108B8000002E00F0B1800021C6E900050846BDE8CE
:108B9000F087B3FA83F1002946D1AB42C0F0A78039
:108BA000824240F2A4800846002EAAD0C6E9004ABC
:108BB000A7E7C2F12000974001FA02F34FEA174EEF
:108BC000C14024FA00F51FFA87F894401D43B1FB19
:108BD000FEF02B0C0EFB101100FB08FC43EA0143D6
:108BE0009C4509D9FB182CBF012100219C4502D9C5
:108BF000002900F095800138A3EB0C03ADB2B3FB64
:108C0000FEF10EFB113301FB08FC45EA0345AC45C0
:108C100005D97D1902D2AC4500F289800139A5EB56
:108C20000C0341EA00417AE7C1F120048B4002FACB
:108C300001F705FA01FCE24020FA04F8E54000FAE9
:108C400001FE134348EA0C024FEA13484FEA124C64
:108C50001FFA83F9B5FBF8FA08FB1A550AFB09F06D
:108C60004CEA054C60450AD913EB0C0C2CBF0125CE
:108C70000025604501D9002D55D00AF1FF3AACEB33
:108C8000000C92B2BCFBF8F008FB10CC00FB09F919
:108C900042EA0C4CE14505D913EB0C0C01D2E1453D
:108CA0003BD8013840EA0A40ACEB090CA0FB07892D
:108CB000CC4545464A4602D306D1C64504D20138C2
:108CC000B8EB070569EB03022EB3BEEB05036CEBB3
:108CD000020C23FA01F20CFA04F42CFA01F300213D
:108CE0001443C6E900430CE73146304609E7841ACD
:108CF00065EB030301209A4656E7ACF1020C3D44B4
:108D000024E702383C4434E702383C44EFE6AEF155
:108D1000020E3B44D9E63146F3E602389C44C1E7F3
:108D200002383B4468E7AAF1020A9C44A7E70239EB
:108D30003D4474E7704700BF73B50A4C15461E46A4
:108D4000A46914B1A04702B070BD0DF107008DF801
:108D500007401CF0C7FB9DF807202046AD1A357070
:108D6000F1E700BF6C0F0021014B1879704700BF7D
:108D70008C0F0021044B1A79824283BF1B68242286
:108D800002FB0030002070478C0F00212DE9F047D6
:108D9000DFF8E48098F82E5005F1080908EB890304
:108DA0005C78202C4CD0EDB2314E324F04EB4513A1
:108DB0006D0108EB430393F83430013B052B52D887
:108DC000DFE803F00351514447034FF0070A0EB1A7
:108DD00000E000BFEFF3108272B608EB89092B198F
:108DE00099F8021008EB4303A14293F8353089F853
:108DF000013027D01AB90FB100E000BF62B62B19BD
:108E000008EB430393F8342032B3062A24D0032A14
:108E100022D0052A20D0012283F8342004EB440418
:108E2000514608EBC404D4E92D30984798F82E50E9
:108E300005F10809EDB208EB89035C78202CB5D167
:108E4000BDE8F087202389F80230D3E74FF0020A0B
:108E5000BDE74FF0030ABAE72544012308EB4505B7
:108E600085F83430DAE740F6D901702003F030FF9E
:108E70000000000000000000940F00212DE9F047E1
:108E8000354D064600F10808AB7F15F82840002B49
:108E900014BF0027022702F0A3FE05F1B4024FEA37
:108EA000461C202104EB44030CEB040EDB0005EB15
:108EB0004E0E083352F803901344A9EB00095B6887
:108EC00029F07F4A1B1A574543EA090307D813F4D0
